:100000000C946C000C9494000C9494000C94940048
:100010000C9494000C9494000C9494000C94940010
:100020000C9494000C9494000C9494000C944C0246
:100030000C9494000C9474020C9494000C9494000E
:100040000C9494000C9494000C9494000C9424024E
:100050000C94940007634236B79BD8A71A396856A8
:1000600018AEBAAB558C1D3CB7CC5763BD6DEDFDDA
:10007000753EF6177231BF000000803F0800000097
:10008000BE922449123EABAAAA2ABECDCCCC4C3E8D
:1000900000000080BEABAAAAAA3E00000000BF007C
:1000A0000000803F0000000000084178D3BB438778
:1000B000D1133D190E3CC3BD4282AD2B3E68EC828C
:1000C00076BED98FE1A93E4C80EFFFBE01C4FF7F11
:1000D0003F0000000000E20211241FBECFE5D4E083
:1000E000DEBFCDBF10E0A0E6B0E0E4E5F9E102C07C
:1000F00005900D92AC37B107D9F720E0ACE7B0E03E
:1001000001C01D92A838B207E1F710E0CCE6D0E0BC
:1001100004C02197FE010E94360BCB36D107C9F7E8
:100120000E94A2020C94A80C0C940000DF92EF92A3
:10013000FF920F931F93CF93DF937C01C62FDC01B7
:100140006C9311964C93119716961C9216971796CE
:100150001C92179718961C928C2F90E0880F991F6D
:100160000E944B0BF70193838283892BA9F3D12C37
:10017000D701CC91DC16D8F4F70102811381CD2D83
:10018000D0E0CC0FDD1F0C0F1D1F818190E00E947D
:100190004B0BD8018D939C93F70182819381C80FFB
:1001A000D91F88819981892B39F3D394E1CF8C2F82
:1001B00090E00E944B0BD70115969C938E93149759
:1001C000892BA9F380E0F7019081891740F404801E
:1001D000F581E02DE80FF11D10828F5FF4CFDF91E4
:1001E000CF911F910F91FF90EF90DF900895FC0148
:1001F00080810895FC0126816081261739F087816E
:100200008F5F0E94FD0A97832F5F26830895DC018C
:1002100016968C911697882379F012962D913C9121
:10022000139718968C91E82FF0E0EE0FFF1FE20F66
:10023000F31F80819181089580E090E00895FC0192
:100240008681882379F0A481B5818085A80FB11DAE
:100250001C9280858F5F60810E94FD0A9087868155
:10026000815086830895FC018681882339F084813A
:1002700095812085FC01E20FF11D80810895CF93C7
:10028000DF93EC01CE010E944B0B0097D9F3DF9175
:10029000CF91089580917C0090917D00A0917E0087
:1002A000B0917F000196A11DB11D80937C009093B9
:1002B0007D00A0937E00B0937F0008958091800020
:1002C000909181000E940D06089595B384E08927DE
:1002D00085BB80918000909181000E943B0688231D
:1002E00099F080918000909181000E944606BC01A7
:1002F00080918000909181000E948A068091800008
:10030000909181000E944C060895CF93DF9395B39E
:1003100082E0892785BB66E670E08091800090913D
:1003200081000E948A0660917C0070917D0080911E
:100330007E0090917F000E94A80740E00E94780410
:10034000EC01BC0180918000909181000E948A069E
:10035000CE010E94E30B6CE670E0809180009091EA
:1003600081000E948A06DF91CF910895CF93DF9399
:1003700095B381E0892785BB62E770E080918000BA
:10038000909181000E948A0660917C0070917D00AE
:1003900080917E0090917F000E94A80740E00E941B
:1003A0007804EC01BC0180918000909181000E9452
:1003B0008A06CE010E94E30B6CE670E0809180001B
:1003C000909181000E948A06DF91CF910895CF928B
:1003D000EF920F931F93CF93DF93019771F56F3FC8
:1003E0007F4F59F585E090E00E946D04EC0125E017
:1003F00040E052E16AE770E00E94E902D093830096
:10040000C09382008BE090E00E945206EC010F2E18
:10041000FAE0CF2EF02D0F2EFAE0EF2EF02D00E0B7
:1004200012E12AE730E040E855E260E070E00E9427
:10043000A805D0938100C0938000DF91CF911F91D8
:100440000F91EF90CF9008951F920F920FB60F92D9
:1004500011242F933F934F935F936F937F938F93C9
:100460009F93AF93BF93EF93FF93809182009091FE
:1004700083000E947E03FF91EF91BF91AF919F9106
:100480008F917F916F915F914F913F912F910F903D
:100490000FBE0F901F9018951F920F920FB60F92DC
:1004A00011242F933F934F935F936F937F938F9379
:1004B0009F93AF93BF93EF93FF93809180009091B0
:1004C00081000E94CD06FF91EF91BF91AF919F9166
:1004D0008F917F916F915F914F913F912F910F90ED
:1004E0000FBE0F901F9018951F920F920FB60F928C
:1004F00011242F933F934F935F936F937F938F9329
:100500009F93AF93BF93EF93FF938091800090915F
:1005100081000E940A0680918000909181000E94D3
:100520000D06FF91EF91BF91AF919F918F917F91B8
:100530006F915F914F913F912F910F900FBE0F9050
:100540001F90189580918000909181000E9406066E
:1005500048EE53E06AE471E080918200909183005C
:100560000E94F30348EE53E066EB71E08091820055
:10057000909183000E94F3034AE050E06EE571E041
:1005800080918200909183000E94F30340ED57E038
:1005900065E871E080918200909183000E94F303EE
:1005A00044EF51E065E671E0809182009091830014
:1005B0000E94F303789480918200909183000E94BE
:1005C0009D03F9CF6FEF7FEF81E090E00E94E7019C
:1005D00008958F929F92AF92BF92DF92EF92FF9217
:1005E0000F931F93CF93DF937C014A015B01C22FCE
:1005F000CB01BA0128E134EE43E050E00E94090B40
:10060000283031054105510540F483B7826083BF2E
:1006100028E030E040E050E028C0203431054105BA
:10062000510540F483B7836083BF20E430E040E0AD
:1006300050E01BC02F3F31054105510509F040F442
:1006400083B7846083BF20E031E040E050E00DC01C
:10065000211584E038074105510538F483B78560DA
:1006600083BF20E034E040E050E083B7886083BF80
:10067000A8EEB3E00E942B0B9B01AC01C501B401B5
:100680000E94090B2CBFF70110821182C2838C2FAC
:1006900090E0880F991F0E944B0BF701948383838E
:1006A000892BA9F3D12CF7018281D816D8F4F70150
:1006B00003811481CD2DD0E0CC0FDD1F0C0F1D1F49
:1006C00087E090E00E944B0BF80191838083F70153
:1006D00083819481C80FD91F88819981892B39F32F
:1006E000D394E1CFDF91CF911F910F91FF90EF90C5
:1006F000DF90BF90AF909F908F900895DC0112BE65
:1007000090E08C919817C0F413962D913C9114971A
:10071000E92FF0E0EE0FFF1FE20FF31F0190F081D1
:10072000E02D8681811106C0248135812F5F3F4FE6
:10073000358324839F5FE5CF0895CF93DF93FC013A
:100740002081222309F447C0EC0123813481818177
:10075000E82FF0E0EE0FFF1FE20FF31F0190F08192
:10076000E02D24813581828193812817390768F132
:1007700081E086832B813C818981E82FF0E0EE0FB8
:10078000FF1FE20FF31F0190F081E02D158214820C
:100790002B813C818981E82FF0E0EE0FFF1FE20FF3
:1007A000F31F0190F081E02D0190F081E02D09957B
:1007B0002B813C818981E82FF0E0EE0FFF1FE20FD3
:1007C000F31F0190F081E02D168289818F5F68818F
:1007D0000E94FD0A9983DF91CF91089512BE89B7D7
:1007E000826089BF08950F931F93CF93DF93CDB796
:1007F000DEB727970FB6F894DEBF0FBECDBF8C01D2
:10080000DC018C9112969C91891709F45BC090E0F1
:10081000981780F5D8011396ED91FC911497292F24
:1008200030E0220F331FE20FF31F0190F081E02D23
:10083000A081B181A617B707D9F453834283D801A9
:100840001396ED91FC911497E20FF31F0190F08144
:10085000E02D1582148213968D919C911497FC01C2
:10086000E20FF31F0190F081E02D168281E003C0BA
:100870009F5FCECF80E0811125C07A8369835C833E
:100880004B831E821D821F82F80123813481808167
:10089000E82FF0E0EE0FFF1FE20FF31FA081B18100
:1008A00087E0FE01319601900D928A95E1F7D8011B
:1008B0008C91811103C0C8010E94EE03F801808170
:1008C0008F5F808327960FB6F894DEBF0FBECDBF33
:1008D000DF91CF911F910F910895CF93DF93EC019A
:1008E000CE010E944B0B0097D9F3DF91CF91089571
:1008F0002F923F924F925F926F927F928F929F9230
:10090000AF92BF92CF92DF92EF92FF920F931F931D
:10091000CF93DF9300D000D000D0CDB7DEB72B014E
:100920003C01942E2DB63EB69F776B837C838D83DE
:100930009E830E947907A62EB72EC82ED92E262F69
:10094000372F482F592F812C01C08F2CCA01B90194
:100950002AE030E040E050E00E94090BFF24F394CD
:10096000F80C211531054105510579F7992021F041
:1009700083948394890C01C08F2C20E030E0A9017E
:10098000C301B2010E94740788230CF483948394FA
:100990008F2D90E00196ADB7BEB7A81BB90B0FB66F
:1009A000F894BEBF0FBEADBF2DB73EB72F5F3F4F10
:1009B0003A8329838901EE24E394FE14C0F06A2D62
:1009C0007B2D8C2D9D2D2AE030E040E050E00E94F0
:1009D000090BA22EB32EC42ED52EEF2DF0E0EE196A
:1009E000F109E00FF11F605D6083E394E6CFE981D8
:1009F000FA81EF0DF11D1082E82CF12CC7010E9445
:100A00004B0B8C01892BC1F320E030E0A901C3011D
:100A1000B2010E94740788236CF4A70168E770E0B4
:100A2000C8010E94940CA70169817A81C8010E94C3
:100A3000750C06C0A70169817A81C8010E94940CD7
:100A4000992009F466C0A7016AE770E0C8010E9416
:100A5000750C6A2D7B2D8C2D9D2D0E94A8079B0166
:100A6000AC016B817C818D819E810E9407072B01E7
:100A70003C01692D70E080E090E00E94A8079B0196
:100A8000AC0160E070E080E291E40E94C7080E943F
:100A900017090E9479070E94A8079B01AC01C301B6
:100AA000B2010E945A080E9417090E9479079B010F
:100AB000AC01892D90E001966DB77EB7681B790B6C
:100AC0000FB6F8947EBF0FBE6DBF8DB79EB701966F
:100AD0005C016C0188248394981490F0CA01B901D8
:100AE0002AE030E040E050E00E94090BE92DF0E000
:100AF000E819F109EC0DFD1D605D60838394ECCF76
:100B0000F501E90DF11D1082A701B501C8010E9490
:100B1000750CC8010FB6F8943EBE0FBE2DBE2696CA
:100B20000FB6F894DEBF0FBECDBFDF91CF911F91FE
:100B30000F91FF90EF90DF90CF90BF90AF909F907C
:100B40008F907F906F905F904F903F902F9008957F
:100B50004F925F926F927F928F929F92AF92BF92CD
:100B6000CF92EF920F931F93CF93DF93EC014A0143
:100B70005B01280139011882198289E090E00E9406
:100B80003F018C014C2D6E2D0E9496001B830A8321
:100B90001C821E8289E090E00E943F018C014C2D56
:100BA0006E2D0E9496001A870987D501C401880F0F
:100BB000991FAA1FBB1F880F991FAA1FBB1F9C014B
:100BC000AD01220F331F441F551F220F331F441F37
:100BD000551FC301B2010E94090B2150310980B594
:100BE000866080BD80B5806880BD30BD29B9DF9149
:100BF000CF911F910F91EF90CF90BF90AF909F90AA
:100C00008F907F906F905F904F9008958AB1886D1C
:100C10008AB90895FC01108208951F93CF93DF9342
:100C2000FC012081211123C0EC01828193810E946B
:100C300033018823E1F019818A819B810E9433016D
:100C4000181780F48A819B810E940701298131E075
:100C5000320F3983820F911DFC0180818CB981E0B4
:100C6000888305C08A819B810E941F011982DF91C0
:100C7000CF911F910895FC01818592850E943301D7
:100C800091E0811101C090E0892F0895FC018185D8
:100C900092850E9407010895FC01818592850E943A
:100CA0001F010895CF93DF93EC01CE010E944B0BFF
:100CB0000097D9F3DF91CF9108951F93CF93DF93DE
:100CC000FC0196818081981709F1878190E0A481C9
:100CD000B581A80FB91F2C91122F140F3181131752
:100CE000A8F4EF0150E0880F991F0280F381E02DF6
:100CF000E80FF91F80819181820F911D0E946C0C79
:100D00008F81EC81FD81E80FF11D1083DF91CF9180
:100D10001F910895CF93DF93EC01FB010190002018
:100D2000E9F73197AF01461B570B8A819B810E94DF
:100D30005D068A819B810E94FA00DF91CF91089520
:100D40001F93CF93DF93FC0196818081981709F15F
:100D5000878190E0A481B581A80FB91F2C91122F33
:100D6000140F31811317A8F4EF0150E0880F991F79
:100D70000280F381E02DE80FF91F80819181820FBD
:100D8000911D0E946C0C8F81EC81FD81E80FF11D9B
:100D90001083DF91CF911F910895FF920F931F93BE
:100DA000CF93DF931F92CDB7DEB72CB129832A32C0
:100DB00021F421E0FC01248323C08C012432A1F41E
:100DC000FC01F580818592850E94F700F81640F4B9
:100DD000F80185818F5F8583818592850E94FA0065
:100DE000F801148216820CC0FC018481882341F032
:100DF00041E0BE016F5F7F4F818592850E94A00612
:100E00000F90DF91CF911F910F91FF90089550584F
:100E1000BB27AA270E941F070C9420080E941208D3
:100E200038F00E94190820F039F49F3F19F426F495
:100E30000C940F080EF4E095E7FB0C940908E92FD9
:100E40000E94310858F3BA176207730784079507A1
:100E500020F079F4A6F50C9453080EF4E0950B2ECF
:100E6000BA2FA02D0B01B90190010C01CA01A001FC
:100E70001124FF27591B99F0593F50F4503E68F157
:100E80001A16F040A22F232F342F4427585FF3CF98
:100E9000469537952795A795F0405395C9F77EF469
:100EA0001F16BA0B620B730B840BBAF09150A1F0B2
:100EB000FF0FBB1F661F771F881FC2F70EC0BA0F38
:100EC000621F731F841F48F4879577956795B795C0
:100ED000F7959E3F08F0B0CF9395880F08F09927BB
:100EE000EE0F9795879508950E94E50708F481E035
:100EF00008950E94390888F09F5798F0B92F9927D4
:100F0000B751B0F0E1F0660F771F881F991F1AF0F4
:100F1000BA95C9F714C0B13091F00E945308B1E0FE
:100F200008950C945308672F782F8827B85F39F0FD
:100F3000B93FCCF3869577956795B395D9F73EF48D
:100F400090958095709561957F4F8F4F9F4F089535
:100F5000E89409C097FB3EF4909580957095619553
:100F60007F4F8F4F9F4F9923A9F0F92F96E9BB2709
:100F70009395F695879577956795B795F111F8CF85
:100F8000FAF4BB0F11F460FF1BC06F5F7F4F8F4FF0
:100F90009F4F16C0882311F096E911C0772321F0E6
:100FA0009EE8872F762F05C0662371F096E8862F7E
:100FB00070E060E02AF09A95660F771F881FDAF7D5
:100FC000880F9695879597F90895990F0008550F02
:100FD000AA0BE0E8FEEF16161706E807F907C0F0BF
:100FE00012161306E407F50798F0621B730B840BC7
:100FF000950B39F40A2661F0232B242B252B21F4A1
:1010000008950A2609F4A140A6958FEF811D811D40
:10101000089597F99F6780E870E060E008959FEF7A
:1010200080EC089500240A9416161706180609067F
:10103000089500240A94121613061406050608954E
:10104000092E0394000C11F4882352F0BB0F40F4D6
:10105000BF2B11F460FF04C06F5F7F4F8F4F9F4F16
:10106000089557FD9058440F551F59F05F3F71F098
:101070004795880F97FB991F61F09F3F79F08795FF
:101080000895121613061406551FF2CF4695F1DF88
:1010900008C0161617061806991FF1CF8695710518
:1010A000610508940895E894BB2766277727CB014C
:1010B00097F908950E946D080C9420080E94120868
:1010C00038F00E94190820F0952311F00C940908BB
:1010D0000C940F0811240C9454080E94310870F3EA
:1010E000959FC1F3950F50E0551F629FF001729FCD
:1010F000BB27F00DB11D639FAA27F00DB11DAA1FDC
:10110000649F6627B00DA11D661F829F2227B00D28
:10111000A11D621F739FB00DA11D621F839FA00DB3
:10112000611D221F749F3327A00D611D231F849F03
:10113000600D211D822F762F6A2F11249F5750405A
:101140009AF0F1F088234AF0EE0FFF1FBB1F661FD5
:10115000771F881F91505040A9F79E3F510580F09E
:101160000C9409080C9454085F3FE4F3983ED4F3C0
:10117000869577956795B795F795E7959F5FC1F742
:10118000FE2B880F911D9695879597F90895FA0182
:10119000EE0FFF1F309621053105A1F16115710594
:1011A00061F48038BFE39B0749F16894903881056A
:1011B00061F08038BFEF9B0741F099234AF5FF3F6C
:1011C000E1053105210519F1E8940894E795D90165
:1011D000AA2329F4AB2FBE2FF85FD0F310C0FF5F16
:1011E00070F4A695E0F7F73950F019F0FF3A38F4AB
:1011F0009F779F930DD00F9007FC9058089546F06D
:101200000C940F0860E070E080E89FE308954FE7DA
:101210009F775F934F933F932F930E940F0A2F91D5
:101220003F914F915F910E945A080C9443090E948C
:101230003908E8F09E37E8F09639B8F49E3848F45B
:10124000672F782F8827985FF9CF869577956795D0
:1012500093959539D0F3B62FB1706B0F711D811D29
:1012600020F487957795679593950C9475090C9460
:1012700090090C94540829F416F00C9409080C9465
:1012800053080C940F080E943908A8F39638A0F769
:1012900007F80F92E8942BE33AEA48EB5FE70E94E5
:1012A00070080F920F920F924DB75EB70F920E9487
:1012B000570AE4E5F0E00E949E094F915F91EF919B
:1012C000FF91E595EE1FFF1F49F0FE57E0684427A8
:1012D000EE0F441FFA95E1F74195550B0E94D10995
:1012E0000F9007FE0C94C5090895882371F47723A5
:1012F00021F09850872B762F07C0662311F4992789
:101300000DC09051862B70E060E02AF09A95660F30
:10131000771F881FDAF7880F9695879597F90895B4
:101320009F3F31F0915020F4879577956795B79559
:10133000880F911D9695879597F90895DF93CF9320
:101340001F930F93FF92EF92DF927B018C016894C1
:1013500006C0DA2EEF010E946D08FE01E894A59107
:101360002591359145915591A6F3EF010E941F07F4
:10137000FE019701A801DA9469F7DF90EF90FF90E2
:101380000F911F91CF91DF9108959B01AC0160E017
:1013900070E080E89FE30C948B0A0C9409080C948D
:1013A00090090E943908D8F39923C9F3940F511D6D
:1013B000A3F39150504094F059F0882332F0660F17
:1013C000771F881F91505040C1F79E3F51052CF761
:1013D000880F911D9695879597F908955F3FACF01A
:1013E000983E9CF0BB27869577956795B79508F44E
:1013F000B1609395C1F7BB0F58F711F460FFE8CFC8
:101400006F5F7F4F8F4F9F4FE3CF0C94540816F0C0
:101410000C9490090C940F0868940C9409080E948D
:101420003908A8F39923C1F3AEF3DF93CF931F9349
:101430000F93FF92C92FDD2788232AF02197660F8B
:10144000771F881FDAF720E030E040E85FEB9FE38A
:10145000883920F0803E38F021968F770E94080767
:10146000ECE7F0E004C00E940807E9EAF0E00E941F
:101470009E098B01BE01EC01FB2E6F57710975951A
:10148000771F880B990B0E94AA0728E132E741E3F6
:101490005FE30E946D08AF2D9801AE01FF900F91A0
:1014A0001F91CF91DF910E941F070C942008FA0131
:1014B000DC01AA0FBB1F9B01AC01BF5728F42227F8
:1014C00033274427507820C0B75190F4AB2F002425
:1014D000469537952795011CA395D2F3002071F00E
:1014E000220F331F441FB395DAF30ED00C94070775
:1014F00061307105A0E88A07B94630F49B01AC0160
:101500006627772788279078309621F020833183CB
:101510004283538308950E949F0A0C9420080E94DE
:10152000190858F00E94120840F029F45F3F29F092
:101530000C94090851110C9454080C940F080E9443
:10154000310868F39923B1F3552391F3951B550B9B
:10155000BB27AA2762177307840738F09F5F5F4F86
:10156000220F331F441FAA1FA9F335D00E2E3AF0C5
:10157000E0E832D091505040E695001CCAF72BD0DD
:10158000FE2F29D0660F771F881FBB1F261737072E
:101590004807AB07B0E809F0BB0B802DBF01FF2760
:1015A00093585F4F3AF09E3F510578F00C9409082C
:1015B0000C9454085F3FE4F3983ED4F386957795F6
:1015C0006795B795F7959F5FC9F7880F911D969519
:1015D000879597F90895E1E0660F771F881FBB1F75
:1015E000621773078407BA0720F0621B730B840B22
:1015F000BA0BEE1F88F7E0950895991B79E004C0B7
:10160000991F961708F0961B881F7A95C9F7809541
:101610000895A1E21A2EAA1BBB1BFD010DC0AA1F33
:10162000BB1FEE1FFF1FA217B307E407F50720F04B
:10163000A21BB30BE40BF50B661F771F881F991FC6
:101640001A9469F760957095809590959B01AC010F
:10165000BD01CF0108950E943C0BA59F900DB49F42
:10166000900DA49F800D911D11240895EE0FFF1F72
:101670000590F491E02D0994A29FB001B39FC001A1
:10168000A39F700D811D1124911DB29F700D811DAE
:101690001124911D08950F931F93CF93DF938230F0
:1016A000910510F482E090E0E0918600F0918700CF
:1016B00020E030E0A0E0B0E0309719F140815181A6
:1016C0000281138148175907C8F08417950769F4F8
:1016D000109731F012960C93129713961C9327C013
:1016E000009386001093870022C02115310519F060
:1016F0004217530718F49A01BD01EF01DF01F80109
:10170000DBCF21153105F9F0281B390B24303105C9
:1017100080F48A819B816115710521F0FB0193831F
:10172000828304C09093870080938600FE013296E6
:1017300044C0FE01E20FF31F8193919322503109BF
:10174000398328833AC02091840030918500232B6F
:1017500041F4209162003091630030938500209322
:10176000840020916000309161002115310541F421
:101770002DB73EB74091640050916500241B350B96
:10178000E0918400F0918500E217F307A0F42E1B8E
:101790003F0B2817390778F0AC014E5F5F4F2417D5
:1017A000350748F04E0F5F1F50938500409384002B
:1017B0008193919302C0E0E0F0E0CF01DF91CF91FF
:1017C0001F910F910895CF93DF93009709F481C083
:1017D000FC01329713821282A0918600B09187009B
:1017E000109781F420813181820F931F2091840012
:1017F000309185002817390751F5F0938500E09363
:10180000840067C0ED0120E030E0CE17DF0740F430
:101810004A815B819E0141155105F1F0EA01F5CF46
:10182000D383C28340815181840F951FC817D90784
:1018300059F488819981840F951F02969183808342
:101840008A819B81938382832115310529F4F0934A
:101850008700E09386003DC0E901FB83EA8349915C
:101860005991C40FD51FEC17FD0761F48081918158
:10187000840F951F0296E901998388838281938161
:101880009B838A83E0E0F0E012968D919C91139700
:10189000009719F0FD01DC01F7CF8D919C91119714
:1018A0009D012E5F3F4F820F931F20918400309146
:1018B00085002817390769F4309729F410928700BA
:1018C0001092860002C013821282B0938500A0930A
:1018D0008400DF91CF910895FB01DC0102C00190EB
:1018E0000D9241505040D8F70895DC01FB01415062
:1018F000504070F00D900020D1F7119704C0019076
:101900000D92002061F041505040C8F71C92BF0179
:1019100001900020E9F7E61BF70BAE0FBF1F0894FC
:10192000A80BB90BCD010895DC01FB0141505040DB
:1019300058F049F001900D920020C1F7E61BF70B1B
:101940003197CF0108951C9201900020E9F7F6CF5E
:04195000F894FFCF39
:101954000000880020004632202D2000207365639B
:0C1964000D004631202D20002D002E002B
:00000001FF
