:1000000013C037C036C035C034C033C032C031C071
:1000100009C23DC163C12DC02CC02BC02AC029C05C
:1000200028C027C026C0560211241FBECFE5D4E049
:10003000DEBFCDBF10E0A0E6B0E0E0E2FDE002C030
:1000400005900D92AA37B107D9F720E0AAE7B0E0F2
:1000500001C01D92A239B207E1F710E0C4E1D0E07F
:1000600003C02197FE012DD4C331D107D1F75DD153
:1000700055C6C6CFFF920F931F93CF93DF938C018A
:10008000F62EFC0160831682158217821086CF2D12
:10009000D0E0CC0FDD1FCE011AD4F801928381830A
:1000A0000097A9F3AE0160E070E0FAD5F801808115
:1000B00090E00DD4F80194838383892BB9F3DF9109
:1000C000CF911F910F91FF900895FC012181328102
:1000D0008085E82FF0E0EE0FFF1FE20FF31F808115
:1000E00091810895FC018681882339F08381948170
:1000F0002085FC01E20FF11D80810895CF93DF93ED
:10010000EC0129813A818885E82FF0E0EE0FFF1F8E
:10011000E20FF31F8081918172D488858F5F68819F
:10012000C4D398878E8181508E83DF91CF910895BB
:10013000CF93DF93EC01CE01CAD30097E1F3DF91B7
:10014000CF9108950F931F93CF93DF93019709F0F9
:1001500099C06F3F7F4F09F095C087E090E00CD2C7
:10016000EC0105E026E330E047E350E068E370E0AF
:10017000F1D1D0938D00C0938C0087E090E0FCD14A
:10018000EC0103E026E330E047E350E068E370E091
:10019000E1D1D0938B00C0938A0087E090E0ECD14E
:1001A000EC0104E026E330E047E350E068E370E070
:1001B000D1D1D0938900C093880087E090E0DCD152
:1001C000EC0102E026E330E047E350E068E370E052
:1001D000C1D1D0938700C093860087E090E027D2FA
:1001E000EC010091860010918700209188003091E9
:1001F000890040918A0050918B0060918C00709131
:100200008D002DD2D0938500C093840087E090E0CC
:10021000B3D1EC0100E026E330E047E350E068E3CF
:1002200070E098D1D0938300C093820087E090E083
:10023000A3D1EC0101E026E330E047E350E068E3BE
:1002400070E088D1D0938100C09380008AE090E074
:10025000CED1EC01609182007091830045E0A7D17E
:10026000D0937F00C0937E008AE090E0C0D1EC0183
:10027000609180007091810045E099D1D0937D001C
:10028000C0937C00DF91CF911F910F9108951F9231
:100290000F920FB60F9211242F933F934F935F93BA
:1002A0006F937F938F939F93AF93BF93EF93FF933E
:1002B00080918400909185007DD2FF91EF91BF9154
:1002C000AF919F918F917F916F915F914F913F91EE
:1002D0002F910F900FBE0F901F9018951F920F92A5
:1002E0000FB60F9211242F933F934F935F936F9309
:1002F0007F938F939F93AF93BF93EF93FF938091DF
:100300008400909185002BD2FF91EF91BF91AF9126
:100310009F918F917F916F915F914F913F912F911D
:100320000F900FBE0F901F90189583B7856083BF05
:100330008EB583608EBD89B7856089BF60917E0070
:1003400070917F008091840090918500ECD1609144
:100350007C0070917D008091840090918500E3D1B4
:100360007894FFCFBF92CF92DF92EF92FF920F93DC
:100370001F93CF93DF938C017B01B42ED801179686
:10038000CC911797D0E0CC0FDD1F11968D919C91E9
:100390001297C80FD91FCB2CD12CC60198D29983A4
:1003A0008883F801878190E09C01220F331F018030
:1003B000F281E02DE20FF31F20813181232BF1F236
:1003C000D80113962D913C911497F901E80FF91F6C
:1003D000B0821796EC911797F0E0EE0FFF1F119681
:1003E0008D919C911297E80FF91FA601B7018081AA
:1003F00091814DD4F80187818F5F608156D29783B8
:1004000086818F5F8683DF91CF911F910F91FF903F
:10041000EF90DF90CF90BF900895FC01808591858B
:10042000A1DF08951F920F920FB60F9211242F9300
:100430003F934F935F936F937F938F939F93AF936C
:10044000BF93EF93FF9380917A0090917B00019688
:1004500090937B0080937A00809166009091670072
:100460000296909367008093660042E06AE770E02E
:1004700080917E0090917F00D0DF42E066E670E0E0
:1004800080917C0090917D00C8DFFF91EF91BF913A
:10049000AF919F918F917F916F915F914F913F911C
:1004A0002F910F900FBE0F901F9018956FEF7FEF59
:1004B00081E090E047DE0895DC011296ED91FC9119
:1004C0001397408121E030E0B90116960C9002C0EC
:1004D000660F771F0A94E2F7CB018095842380830F
:1004E0000895DC011296ED91FC911397408121E073
:1004F00030E0C90116960C9002C0880F991F0A942B
:10050000E2F7842B80830895DC01ED91FC91119733
:10051000408121E030E0C90116960C9002C0880F9E
:10052000991F0A94E2F7842B80830895DC01ED91F2
:10053000FC911197408121E030E0B90116960C90B2
:1005400002C0660F771F0A94E2F7CB0180958423DF
:10055000808308950F93CF93DF93EC0179836883B1
:100560005B834A833D832C830E83A6DFCE01DEDFCF
:10057000DF91CF910F910895CF93DF93EC01CE01DE
:10058000A6D10097E1F3DF91CF91089580E008951F
:1005900080E0089580E008950895FC0180859185AC
:1005A000A1DD0895FC01808591858FDD0895FF927E
:1005B0000F931F93CF93DF93EC01CB01F42E2CE626
:1005C00030E0398328837B836A838BDF8A819B8138
:1005D000ADDF89E090E0ACDD8C016F2D4BDD19873C
:1005E0000887DF91CF911F910F91FF900895CF93CE
:1005F000DF93EC01CE016BD10097E1F3DF91CF9156
:100600000895CF93DF93EC018A819B818FDF8A81EC
:100610009B817ADFDF91CF910895CF93DF93EC0137
:10062000F0DF888599856ADDDF91CF910895CF93BA
:10063000DF93EC01CE014BD10097E1F3DF91CF9135
:100640000895CF93DF93EC01CE0141D10097E1F300
:10065000DF91CF910895FC011282138208958F9249
:100660009F92AF92BF92CF92DF92EF92FF920F9341
:100670001F93CF93DF93EC016B017A01590148017D
:1006800084E090E0DEDF8C01E6DF1A8309831882C4
:10069000C60127DFC6014ADFC70123DFC70146DFE6
:1006A000C5010ADFC50130DFC4011BDFC4012CDF37
:1006B0008DB1826D8DB9DF91CF911F910F91FF9018
:1006C000EF90DF90CF90BF90AF909F908F90089564
:1006D000EF92FF920F931F93CF93DF938C017B01D7
:1006E000FC01C381CF5FC383D0E0CC0FDD1FBE010F
:1006F000F801808191810CD20097C9F3F8019183B0
:100700008083238130E021503048220F331FFC01C9
:10071000E20FF31FF182E082DF91CF911F910F91E1
:10072000FF90EF900895FC0181819281D1DF0895BF
:10073000DC011296EC911297F0E0EE0FFF1F8D9105
:100740009C91E80FF91F808191810895FC016381DC
:10075000662321F082818F5FA8D092830895CF9382
:10076000DF93FC01A381B481868191E0980F968389
:10077000A80FB11D8FB18C9386819581891740F4A4
:100780000380F481E02DE80FF11D80818FB90FC047
:10079000EF0181819281CCDFDC01ED91FC91048439
:1007A000F585E02D0995188289819A81CFDFDF9147
:1007B000CF910895CF93DF93DC012C91211172C06A
:1007C000EC0189819A81B4DFDC01ED91FC91068016
:1007D000F781E02D09958D83882309F460C0898114
:1007E0009A81A6DFDC01ED91FC910084F185E02D7A
:1007F00009959C838B831E8289819A8199DFDC0114
:10080000ED91FC910480F581E02D0995811104C0E2
:100810008DB18F7D8DB905C0813019F48DB18062A5
:100820008DB989819A8184DFDC01ED91FC91028090
:10083000F381E02D0995811104C08DB18B7F8DB9B5
:1008400005C0813019F48DB184608DB989819A8198
:100850006FDFDC01ED91FC910190F081E02D0995B5
:10086000811104C08DB1877F8DB905C0813019F425
:100870008DB188608DB989819A815ADFDC01ED9153
:10088000FC910284F385E02D0995EB81FC818E813A
:10089000E80FF11D80818FB981E0888303C08981D1
:1008A0009A8154DFDF91CF910895991B79E004C0BC
:1008B000991F961708F0961B881F7A95C9F780959F
:1008C0000895EE0FFF1F0590F491E02D09940F930A
:1008D0001F93CF93DF938230910510F482E090E074
:1008E000E0919000F091910020E030E0A0E0B0E0D5
:1008F000309719F1408151810281138148175907BE
:10090000C8F08417950769F4109731F012960C938C
:10091000129713961C9327C0009390001093910098
:1009200022C02115310519F04217530718F49A0116
:10093000BD01EF01DF01F801DBCF21153105F9F031
:10094000281B390B2430310580F48A819B81611585
:10095000710521F0FB019383828304C09093910081
:1009600080939000FE01329644C0FE01E20FF31F17
:100970008193919322503109398328833AC0209181
:100980008E0030918F00232B41F420916200309132
:10099000630030938F0020938E002091600030918F
:1009A00061002115310541F42DB73EB74091640037
:1009B00050916500241B350BE0918E00F0918F0063
:1009C000E217F307A0F42E1B3F0B2817390778F026
:1009D000AC014E5F5F4F2417350748F04E0F5F1F85
:1009E00050938F0040938E008193919302C0E0E07A
:1009F000F0E0CF01DF91CF911F910F910895CF9338
:100A0000DF93009709F481C0FC01329713821282B0
:100A1000A0919000B0919100109781F420813181D4
:100A2000820F931F20918E0030918F002817390775
:100A300051F5F0938F00E0938E0067C0ED0120E048
:100A400030E0CE17DF0740F44A815B819E014115FB
:100A50005105F1F0EA01F5CFD383C2834081518182
:100A6000840F951FC817D90759F488819981840F7D
:100A7000951F0296918380838A819B8193838283D1
:100A80002115310529F4F0939100E09390003DC0C9
:100A9000E901FB83EA8349915991C40FD51FEC17F3
:100AA000FD0761F480819181840F951F0296E90111
:100AB00099838883828193819B838A83E0E0F0E03D
:100AC00012968D919C911397009719F0FD01DC010E
:100AD000F7CF8D919C9111979D012E5F3F4F820F13
:100AE000931F20918E0030918F002817390769F4E9
:100AF000309729F4109291001092900002C0138256
:100B00001282B0938F00A0938E00DF91CF91089551
:100B1000A0E0B0E0EDE8F5E0CEC0EC01009719F4FC
:100B2000CB01D5DEB0C0FC01E60FF71F9C012250BF
:100B30003109E217F30708F4A4C0D9010D911C9103
:100B4000119706171707A8F00530110508F497C08C
:100B5000C80104978617970708F491C0025011093D
:100B6000061B170B019311936D937C93CF0147DF05
:100B700086C05B01A01AB10A4C01800E911EA091A3
:100B80009000B0919100612C712CE12CF12C109708
:100B900009F446C08D919C911197A815B905B1F53E
:100BA0006C0142E0C40ED11CCA14DB0478F14C0184
:100BB0008A189B08640142E0C40ED11C1296BC90B6
:100BC00012971396AC91B5E0CB16D10440F0B282E7
:100BD000A38391828082D9016D937C9309C00E5FBB
:100BE0001F4F800F911FF90191838083EB2DFA2F06
:100BF000E114F10431F0D7011396FC93EE931297B0
:100C00003EC0F0939100E093900039C068167906D9
:100C100008F43C017D0112960D90BC91A02DB7CF38
:100C200080918E0090918F0088169906E1F46616E7
:100C30007706C8F48091600090916100009741F4BC
:100C40008DB79EB74091640050916500841B950B51
:100C5000E817F907B0F4F0938F00E0938E00F901E4
:100C6000718360830CC0CB0132DE7C01009749F0B8
:100C7000A801BE010CD0CE01C2DEC70104C0CE0166
:100C800002C080E090E0CDB7DEB7EEE030C0FB01FF
:100C9000DC0102C001900D9241505040D8F70895F8
:100CA000DC0101C06D9341505040E0F708952F9250
:100CB0003F924F925F926F927F928F929F92AF92EC
:100CC000BF92CF92DF92EF92FF920F931F93CF9339
:100CD000DF93CDB7DEB7CA1BDB0B0FB6F894DEBFD0
:100CE0000FBECDBF09942A88398848885F846E84F6
:100CF0007D848C849B84AA84B984C884DF80EE8040
:100D0000FD800C811B81AA81B981CE0FD11D0FB648
:100D1000F894DEBF0FBECDBFED010895F894FFCF6C
:100D2000000092002000010000000000C602C8027E
:0A0D3000CA02CD02D202CC020D036C
:00000001FF
