S01700004D4350333230325F4578616D706C652E737265633B
S113000053C06DC06CC06BC06AC069C068C067C0B3
S113001066C01CC264C063C062C061C060C05FC00F
S11300205EC05DC05CC007634236B79BD8A71A396F
S1130030685618AEBAAB558C1D3CB7CC5763BD6D32
S1130040EDFD753EF6177231BF000000803F0800D9
S11300500000BE922449123EABAAAA2ABECDCCCC43
S11300604C3E00000080BEABAAAAAA3E00000000DD
S1130070BF000000803F0000000000084178D3BBAF
S11300804387D1133D190E3CC3BD4282AD2B3E685C
S1130090EC8276BED98FE1A93E4C80EFFFBE01C44D
S11300A0FF7F3F000000000011241FBECFE5D4E015
S11300B0DEBFCDBF10E0A0E6B0E0EEE5F5E102C0A2
S11300C005900D92AA36B107D9F720E0AAE6B0E070
S11300D001C01D92A337B207E1F7EBD13ECA90CF1E
S11300E0FC018481958151D30895FC01848195811B
S11300F05ED30895FF920F931F93CF93DF93EC0188
S1130100F12C83E08F1590F00F2D10E00D5F1F4F41
S1130110000F111F0C0F1D1FF8018081918135D331
S1130120F8018081918109D3F394EBCF8A819B817B
S11301302CD3888199813BD3CE01D2DF8C859D85D8
S11301405CD3182FCE01D1DFCE01CADFCE01CDDFC3
S11301501111F2CFF12CF3E0FF1590F00F2D10E008
S11301600D5F1F4F000F111F0C0F1D1FF801808121
S11301709181F8D2F8018081918119D3F394EBCF66
S11301808A819B8114D3DF91CF911F910F91FF90AE
S11301900895EF92FF920F931F93CF93DF93EC0197
S11301A0E62E142FA7DF113021F488819981FFD224
S11301B005C0111103C088819981E7D20E2D10E08A
S11301C01595079515950795159507951595079513
S11301D0F12C81E08F1558F1CE0182DF10E014304C
S11301E008F5812F90E0202F30E0012E02C03595D4
S11301F027950A94E2F720FF0AC0FC013396EE0F1C
S1130200FF1FEC0FFD1F80819181BFD209C0FC014B
S11302103396EE0FFF1FEC0FFD1F80819181C7D233
S11302201F5FDDCFCE0161DFF3940E2DD2CFDF91BE
S1130230CF911F910F91FF90EF900895423020F0DD
S11302404170FC012685620FF0E44F9F600D11247C
S1130250606841E09EDF089541E06CE09ADF089514
S113026041E068E096DF089541E061E092DF08959F
S11302706F927F928F92AF92BF92CF92DF92EF9262
S1130280FF920F931F93CF93DF93CDB7DEB73C015B
S1130290CB01F30186867183608353834283358364
S11302A0248317830683F186E086D386C286B586C7
S11302B0A48658D2F3018281938154D2F3018481BC
S11302C0958150D2F3018281938171D2F12CF3E0B4
S11302D0FF1590F00F2D10E00D5F1F4F000F111F41
S11302E0060D171DF801808191813CD2F8018081AF
S11302F091815DD2F394EBCFF3018681978145D24E
S1130300F3018085918541D210E0123090F4C3014D
S1130310E7DE8FE99FE00197F1F700C00000C30119
S1130320E4DEEFE9FFE03197F1F700C000001F5F62
S1130330ECCFF301868197813AD2C301D1DE8FE9F4
S11303409FE00197F1F700C00000C301CEDEEFE9A2
S1130350FFE03197F1F700C0000041E068E2C3011B
S113036018DFC3017DDFC3017FDF41E066E0C30125
S113037010DFC30171DFDF91CF911F910F91FF90C7
S1130380EF90DF90CF90BF90AF908F907F906F9061
S113039008950F931F93CF93DF938C01D62F642F6F
S11303A0422F4CDFC0E0CD1730F440E060E2C801DA
S11303B0F0DECF5FF8CFDF91CF911F910F910895B9
S11303C00F931F93CF93DF938C01EB01642F422F84
S11303D035DF6881662329F0219640E0C801D9DE23
S11303E0F8CFDF91CF911F910F910895542F2130B1
S11303F019F0223069F01CC0FC012685FB01019034
S11304000020E9F73197E61BF70B422F4E1B11C072
S1130410FC012685FB0101900020E9F73197E61BDA
S1130420F70B30E02E1B3F0B36952795422F01C06A
S113043040E0252FC5DF0895CF93DF93EC01CE0173
S113044038D70097E1F3DF91CF9108951F920F926F
S11304500FB60F9211248F9380916E00811103C007
S113046081E080936E008F910F900FBE0F901F90CC
S11304701895FF920F931F93CF93DF938C01F62E61
S1130480EA01262F40E065E084DFBE0180E090E0D1
S1130490D1D340E020D2EC0120E04F2DBC01C801B3
S11304A0A5DFCE019ED7DF91CF911F910F91FF90D1
S11304B00895CF93DF9300D000D0CDB7DEB787E0A7
S11304C090E0ADD13C0100E020E330E041E350E0B6
S11304D062E370E080D187E090E0A1D12C0101E0DB
S11304E020E330E041E350E062E370E074D187E060
S11304F090E095D11C0102E020E330E041E350E0BC
S113050062E370E068D187E090E089D19A838983BF
S113051003E020E330E041E350E062E370E05BD1CC
S113052087E090E07CD17C0104E020E330E041E30B
S113053050E062E370E04FD187E090E070D16C014D
S113054005E020E330E041E350E062E370E043D1B2
S113055087E090E064D15C0106E020E330E041E311
S113056050E062E370E037D18FE090E065DF9C8378
S11305708B836894882484F809811A819101A201EB
S1130580B30176DE87E090E04AD14C0105E026E332
S113059030E047E350E068E370E01DD187E090E08D
S11305A03ED16C0103E026E330E047E350E068E32A
S11305B070E011D187E090E032D15C0104E026E3E1
S11305C030E047E350E068E370E005D187E090E075
S11305D026D13C0102E026E330E047E350E068E343
S11305E070E0F9D088E090E06CD17C018301950142
S11305F0A601B4011ED187E090E011D14C0100E0C6
S113060026E330E047E350E068E370E0E4D083E0C1
S113061090E089D05C0140E0B4013BD083E090E0FD
S113062082D06C0141E0B40134D083B7856083BFCC
S113063089B7816089BF789480916E008823E1F343
S113064010926E00B701C50132D020916C00309138
S11306506D008217930749F090936D0080936C00AE
S1130660AC0160E08B819C8104DFB701C6011FD01F
S113067020916A0030916B0082179307E9F29093FE
S11306806B0080936A00AC0161E08B819C81F1DE98
S1130690D3CFCF93DF93EC01CB0148837A83698373
S11306A061D089819A8171D0DF91CF910895EF92C1
S11306B0FF920F931F93CF93DF938C017B0140E054
S11306C060E0C701D9D0F8018181928170D061E0E6
S11306D0C701F1D0F8016081F0E46F9FB0011124EB
S11306E0606AC701E8D0C701EAD0C82FD0E0DC2F88
S11306F0CC27D295D07FD295C295CF70CD27DF700D
S1130700CD2760E0C701D7D0C701D9D0C82BF801E5
S1130710818192813AD0CE01DF91CF911F910F91C7
S1130720FF90EF900895CF93DF93EC01CE01C1D5F4
S11307300097E1F3DF91CF910895DC011296ED91DA
S1130740FC911397408121E030E0B90116960C909A
S113075002C0660F771F0A94E2F7CB0180958423C9
S113076080830895DC011296ED91FC9113974081EA
S113077021E030E0C90116960C9002C0880F991F41
S11307800A94E2F7842B80830895DC01ED91FC91B7
S11307901197408121E030E0C90116960C9002C007
S11307A0880F991F0A94E2F7842B80830895DC0153
S11307B0ED91FC911197408121E030E0B90116964A
S11307C00C9002C0660F771F0A94E2F7CB01809564
S11307D08423808308950F93CF93DF93EC0179836F
S11307E068835B834A833D832C830E83A6DFCE011B
S11307F0DEDFDF91CF910F910895DC011496ED9126
S1130800FC911597208130E0F90116960C9002C0F6
S1130810F595E7950A94E2F7CF0181700895CF9397
S1130820DF93EC01CE0145D50097E1F3DF91CF9141
S113083008950F931F93CF93DF93EC01CB0179833A
S113084068835B834A833D832C831F830E838ADF03
S11308508A819B8187DF8C819D8197DF8E819F8137
S113086094DF8E819F817EDF8DB183658DB9DF91A9
S1130870CF911F910F9108958DB18870861759F00B
S1130880611104C08DB1877F8DB905C0613019F441
S11308908DB188608DB98DB18470841759F0411180
S11308A004C08DB18B7F8DB90895413019F48DB199
S11308B084608DB908956FB9779BFECF08958FB189
S11308C00895CF93DF93EC01CE01F3D40097E1F3C5
S11308D0DF91CF9108952F923F924F925F926F9242
S11308E07F928F929F92AF92BF92CF92DF92EF92BC
S11308F0FF920F931F93CF93DF9300D000D000D0CB
S1130900CDB7DEB72B013C01942E2DB63EB69F77B2
S11309106B837C838D839E8361D1A62EB72EC82ED4
S1130920D92E262F372F482F592F812C01C08F2CD9
S1130930CA01B9012AE030E040E050E098D4FF2435
S1130940F394F80C211531054105510581F79920DF
S113095021F083948394890C01C08F2C20E030E033
S1130960A901C301B20136D188230CF48394839482
S11309708F2D90E00196ADB7BEB7A81BB90B0FB68B
S1130980F894BEBF0FBEADBF2DB73EB72F5F3F4F2C
S11309903A8329838901EE24E394FE14B8F06A2D86
S11309A07B2D8C2D9D2D2AE030E040E050E05FD47B
S11309B0A22EB32EC42ED52EEF2DF0E0EE19F109A0
S11309C0E00FF11F605D6083E394E7CFE981FA8172
S11309D0EF0DF11D1082E82CF12CC7016AD48C01B3
S11309E0892BC9F320E030E0A901C301B201F2D0A0
S11309F088235CF4A70166E670E0C8019AD5A701D4
S1130A0069817A81C80176D505C0A70169817A8197
S1130A10C8018FD5992009F459C0A70168E670E090
S1130A20C80168D56A2D7B2D8C2D9D2D03D19B018A
S1130A30AC016B817C818D819E8167D02B013C014F
S1130A40692D70E080E090E0F5D09B01AC0160E09E
S1130A5070E080E291E403D24ED2C0D0EBD09B018F
S1130A60AC01C301B20198D146D2B8D09B01AC010C
S1130A70892D90E001966DB77EB7681B790B0FB690
S1130A80F8947EBF0FBE6DBF8DB79EB701965C0113
S1130A906C0188248394981488F0CA01B9012AE06F
S1130AA030E040E050E0E3D3E92DF0E0E819F1094B
S1130AB0EC0DFD1D605D60838394EDCFF501E90DC0
S1130AC0F11D1082A701B501C80114D5C8010FB6E4
S1130AD0F8943EBE0FBE2DBE26960FB6F894DEBF28
S1130AE00FBECDBFDF91CF911F910F91FF90EF907B
S1130AF0DF90CF90BF90AF909F908F907F906F903A
S1130B005F904F903F902F9008955058BB27AA278D
S1130B100ED008C1F9D030F0FED020F031F49F3F60
S1130B2011F41EF4EEC00EF4E095E7FBE4C0E92FE7
S1130B300AD180F3BA17620773078407950718F080
S1130B4071F49EF522C10EF4E0950B2EBA2FA02D60
S1130B500B01B90190010C01CA01A0011124FF2766
S1130B60591B99F0593F50F4503E68F11A16F04061
S1130B70A22F232F342F4427585FF3CF4695379560
S1130B802795A795F0405395C9F77EF41F16BA0B25
S1130B90620B730B840BBAF09150A1F0FF0FBB1FD3
S1130BA0661F771F881FC2F70EC0BA0F621F731F1C
S1130BB0841F48F4879577956795B795F7959E3F79
S1130BC008F0B3CF9395880F08F09927EE0F979507
S1130BD0879508956CD008F481E00895BCD088F01E
S1130BE09F5790F0B92F9927B751A0F0D1F0660F15
S1130BF0771F881F991F1AF0BA95C9F712C0B13030
S1130C0081F0C3D0B1E00895C0C0672F782F882742
S1130C10B85F39F0B93FCCF3869577956795B3956E
S1130C20D9F73EF490958095709561957F4F8F4FDD
S1130C309F4F0895E89409C097FB3EF490958095E2
S1130C40709561957F4F8F4F9F4F9923A9F0F92F8E
S1130C5096E9BB279395F695879577956795B7950C
S1130C60F111F8CFFAF4BB0F11F460FF1BC06F5FF2
S1130C707F4F8F4F9F4F16C0882311F096E911C004
S1130C80772321F09EE8872F762F05C0662371F025
S1130C9096E8862F70E060E02AF09A95660F771F39
S1130CA0881FDAF7880F9695879597F90895990F15
S1130CB00008550FAA0BE0E8FEEF16161706E80722
S1130CC0F907C0F012161306E407F50798F0621B43
S1130CD0730B840B950B39F40A2661F0232B242B18
S1130CE0252B21F408950A2609F4A140A6958FEF37
S1130CF0811D811D089597F99F6780E870E060E089
S1130D0008959FEF80EC089500240A9416161706A0
S1130D1018060906089500240A94121613061406E8
S1130D2005060895092E0394000C11F4882352F04B
S1130D30BB0F40F4BF2B11F460FF04C06F5F7F4F03
S1130D408F4F9F4F089557FD9058440F551F59F0EA
S1130D505F3F71F04795880F97FB991F61F09F3FA4
S1130D6079F087950895121613061406551FF2CFCD
S1130D704695F1DF08C0161617061806991FF1CF1D
S1130D8086957105610508940895E894BB27662744
S1130D907727CB0197F908950BD0C4CFB5DF28F09E
S1130DA0BADF18F0952309F0A6CFABCF1124EECF0C
S1130DB0CADFA0F3959FD1F3950F50E0551F629FB2
S1130DC0F001729FBB27F00DB11D639FAA27F00DA0
S1130DD0B11DAA1F649F6627B00DA11D661F829FC7
S1130DE02227B00DA11D621F739FB00DA11D621FAC
S1130DF0839FA00D611D221F749F3327A00D611DC9
S1130E00231F849F600D211D822F762F6A2F1124AA
S1130E109F5750408AF0E1F088234AF0EE0FFF1FFD
S1130E20BB1F661F771F881F91505040A9F79E3F34
S1130E30510570F060CFAACF5F3FECF3983EDCF32E
S1130E40869577956795B795F795E7959F5FC1F771
S1130E50FE2B880F911D9695879597F90895FA01B1
S1130E60EE0FFF1F30962105310599F161157105CB
S1130E7061F48038BFE39B0749F168949038810599
S1130E8061F08038BFEF9B0741F0992342F5FF3FA3
S1130E90E1053105210511F1E8940894E795D9019C
S1130EA0AA2329F4AB2FBE2FF85FD0F310C0FF5F45
S1130EB070F4A695E0F7F73950F019F0FF3A38F4DA
S1130EC09F779F930CD00F9007FC905808953EF0A5
S1130ED018CF60E070E080E89FE308954FE79F77C4
S1130EE05F934F933F932F93E7D02F913F914F916F
S1130EF05F9152DF25C02FDFE0F09E37D8F096399E
S1130F00B8F49E3848F4672F782F8827985FF9CF74
S1130F1086957795679593959539D0F3B62FB170EB
S1130F206B0F711D811D20F48795779567959395B7
S1130F3033C04DC02BCF19F40EF0DDCE26CFE1CE59
S1130F400ADFC8F39638C0F707F80F92E8942BE34A
S1130F503AEA48EB5FE72EDF0F920F920F924DB7FC
S1130F605EB70F92E9D0E6E2F0E03FD04F915F9197
S1130F70EF91FF91E595EE1FFF1F49F0FE57E068E2
S1130F804427EE0F441FFA95E1F74195550B5BD0CA
S1130F900F9007FE4FC00895882371F4772321F042
S1130FA09850872B762F07C0662311F499270DC01C
S1130FB09051862B70E060E02AF09A95660F771FB7
S1130FC0881FDAF7880F9695879597F908959F3FBC
S1130FD031F0915020F4879577956795B795880FF0
S1130FE0911D9695879597F90895DF93CF931F9355
S1130FF00F93FF92EF92DF927B018C01689405C0FE
S1131000DA2EEF01D5DEFE01E894A5912591359104
S113101045915591AEF3EF018ADDFE019701A801D8
S1131020DA9479F7DF90EF90FF900F911F91CF91B1
S1131030DF9108959B01AC0160E070E080E89FE3DC
S1131040AEC059CEC4CF87DEE8F39923D9F3940F09
S1131050511DBBF39150504094F059F0882332F065
S1131060660F771F881F91505040C1F79E3F51056E
S113107044F7880F911D9695879597F908955F3FDA
S1131080ACF0983E9CF0BB27869577956795B7950D
S113109008F4B1609395C1F7BB0F58F711F460FFE2
S11310A0E8CF6F5F7F4F8F4F9F4FE3CF6FCE0EF030
S11310B08ECF27CE68941FCE4EDEC8F39923D1F38A
S11310C0C6F3DF93CF931F930F93FF92C92FDD27AE
S11310D088232AF02197660F771F881FDAF720E00C
S11310E030E040E85FEB9FE3883920F0803E30F049
S11310F021968F770BDDEEE4F0E003C007DDEBE72C
S1131100F0E073DF8B01BE01EC01FB2E6F57710918
S11311107595771F880B990B8FDD28E132E741E342
S11311205FE346DEAF2D9801AE01FF900F911F9152
S1131130CF91DF91FCDCF6CDFA01DC01AA0FBB1FD5
S11311409B01AC01BF5728F422273327442750784A
S11311501FC0B75188F4AB2F0024469537952795C7
S1131160011CA395D2F3002069F0220F331F441F02
S1131170B395DAF30DD0C9CC61307105A0E88A07C4
S1131180B94630F49B01AC0166277727882790780D
S1131190309621F0208331834283538308950CD009
S11311A0C1CDB9DD40F0B0DD30F021F45F3F19F07E
S11311B0A2CD5111EBCDA5CDC6DD98F39923C9F38A
S11311C05523B1F3951B550BBB27AA276217730749
S11311D0840738F09F5F5F4F220F331F441FAA1FFD
S11311E0A9F333D00E2E3AF0E0E830D091505040BD
S11311F0E695001CCAF729D0FE2F27D0660F771F6B
S1131200881FBB1F261737074807AB07B0E809F04C
S1131210BB0B802DBF01FF2793585F4F2AF09E3FE1
S1131220510568F068CDB2CD5F3FECF3983EDCF336
S1131230869577956795B795F7959F5FC9F7880F5A
S1131240911D9695879597F90895E1E0660F771FAC
S1131250881FBB1F621773078407BA0720F0621B3D
S1131260730B840BBA0BEE1F88F7E0950895A1E287
S11312701A2EAA1BBB1BFD010DC0AA1FBB1FEE1F0C
S1131280FF1FA217B307E407F50720F0A21BB30B57
S1131290E40BF50B661F771F881F991F1A9469F7D3
S11312A060957095809590959B01AC01BD01CF012F
S11312B008950F931F93CF93DF938230910510F419
S11312C082E090E0E0917100F091720020E030E063
S11312D0A0E0B0E0309719F140815181028113817F
S11312E048175907C8F08417950769F4109731F027
S11312F012960C93129713961C9327C000937100B7
S11313001093720022C02115310519F042175307BA
S113131018F49A01BD01EF01DF01F801DBCF2115BB
S11313203105F9F0281B390B2430310580F48A810A
S11313309B816115710521F0FB019383828304C0B5
S11313409093720080937100FE01329644C0FE01B6
S1131350E20FF31F8193919322503109398328833B
S11313603AC020916F0030917000232B41F42091FA
S11313706200309163003093700020936F002091DD
S11313806000309161002115310541F42DB73EB75D
S11313904091640050916500241B350BE0916F006F
S11313A0F0917000E217F307A0F42E1B3F0B2817EF
S11313B0390778F0AC014E5F5F4F2417350748F0CA
S11313C04E0F5F1F5093700040936F008193919371
S11313D002C0E0E0F0E0CF01DF91CF911F910F91C7
S11313E00895CF93DF93009709F481C0FC013297ED
S11313F013821282A0917100B0917200109781F44F
S113140020813181820F931F20916F0030917000F1
S11314102817390751F5F0937000E0936F0067C007
S1131420ED0120E030E0CE17DF0740F44A815B8114
S11314309E0141155105F1F0EA01F5CFD383C28332
S113144040815181840F951FC817D90759F48881A9
S11314509981840F951F0296918380838A819B8151
S1131460938382832115310529F4F0937200E0936C
S113147071003DC0E901FB83EA8349915991C40F8E
S1131480D51FEC17FD0761F480819181840F951FAE
S11314900296E90199838883828193819B838A835D
S11314A0E0E0F0E012968D919C911397009719F06B
S11314B0FD01DC01F7CF8D919C9111979D012E5F69
S11314C03F4F820F931F20916F00309170002817B7
S11314D0390769F4309729F4109272001092710060
S11314E002C013821282B0937000A0936F00DF9148
S11314F0CF910895DC01FB014150504070F00D90F4
S11315000020D1F7119704C001900D92002061F0E2
S113151041505040C8F71C92BF0101900020E9F7E8
S1131520E61BF70BAE0FBF1F0894A80BB90BCD0138
S11315300895DC01FB014150504058F049F00190FE
S11315400D920020C1F7E61BF70B3197CF010895E8
S11115501C9201900020E9F7F6CFF894FFCF2B
S10D155E0000730020002D002E0091
S9030000FC
