:1000000054C078C077C076C075C074C073C072C069
:1000100071C05EC48BC46EC06DC06CC06BC06AC062
:1000200069C068C067C007634236B79BD8A71A3952
:10003000685618AEBAAB558C1D3CB7CC5763BD6D36
:10004000EDFD753EF6177231BF000000803F0800DD
:100050000000BE922449123EABAAAA2ABECDCCCC47
:100060004C3E00000080BEABAAAAAA3E00000000E1
:10007000BF000000803F0000000000084178D3BBB3
:100080004387D1133D190E3CC3BD4282AD2B3E6860
:10009000EC8276BED98FE1A93E4C80EFFFBE01C451
:1000A000FF7F3F00000000001B0511241FBECFE5AD
:1000B000D4E0DEBFCDBF10E0A0E6B0E0E6E4FFE1B3
:1000C00002C005900D92AC37B107D9F720E0ACE73C
:1000D000B0E001C01D92A53AB207E1F710E0C5E516
:1000E000D0E003C02197FE01CCDCC435D107D1F7A5
:1000F0006ED427CF85CFFF920F931F93CF93DF93BB
:100100008C01F62EFC016083168215821782108600
:10011000CF2DD0E0CC0FDD1FCE01B9DCF8019283EA
:1001200081830097A9F3AE0160E070E099DEF801E9
:10013000808190E0ACDCF80194838383892BB9F350
:10014000DF91CF911F910F91FF900895FC012181C4
:1001500032818085E82FF0E0EE0FFF1FE20FF31FE2
:10016000808191810895FC018681882339F0838103
:1001700094812085FC01E20FF11D80810895CF93C9
:10018000DF93EC0129813A818885E82FF0E0EE0FBA
:10019000FF1FE20FF31F8081918111DD88858F5F42
:1001A000688135DC98878E8181508E83DF91CF9175
:1001B0000895CF93DF93EC01CE0169DC0097E1F362
:1001C000DF91CF910895CF93DF93EC01CE015FDCF7
:1001D0000097E1F3DF91CF910895FC01848195812F
:1001E000B8D50895FC0184819581C5D50895FF9205
:1001F0000F931F93CF93DF93EC01F12C83E08F15C6
:1002000090F00F2D10E00D5F1F4F000F111F0C0F0E
:100210001D1FF801808191819CD5F8018081918119
:1002200070D5F394EBCF8A819B8193D58881998196
:10023000A2D5CE01D2DF8C859D85C3D5182FCE01E6
:10024000D1DFCE01CADFCE01CDDF1111F2CFF12C0B
:10025000F3E0FF1590F00F2D10E00D5F1F4F000F22
:10026000111F0C0F1D1FF801808191815FD5F801CE
:100270008081918180D5F394EBCF8A819B817BD55E
:10028000DF91CF911F910F91FF900895EF92FF9210
:100290000F931F93CF93DF93EC01E62E142FA7DF6C
:1002A000113021F48881998166D505C0111103C0F0
:1002B000888199814ED50E2D10E0159507951595DD
:1002C00007951595079515950795F12C81E08F15E4
:1002D00058F1CE0182DF10E0143008F5812F90E054
:1002E000202F30E0012E02C0359527950A94E2F7C1
:1002F00020FF0AC0FC013396EE0FFF1FEC0FFD1F1D
:100300008081918126D509C0FC013396EE0FFF1F35
:10031000EC0FFD1F808191812ED51F5FDDCFCE01B7
:1003200061DFF3940E2DD2CFDF91CF911F910F910A
:10033000FF90EF90089541E06CE0A8DF089541E060
:1003400068E0A4DF089541E061E0A0DF08952F9206
:100350003F924F925F926F927F928F929F92AF9255
:10036000BF92CF92DF92EF92FF920F931F93CF93A2
:10037000DF93CDB7DEB73C01FB01DC0115963C9362
:100380002E93149718012401569447945694479439
:100390009201ABE7B4E169DB8C0116950795D301B7
:1003A0001E960C9324E6209FC001219F900D1124DE
:1003B000881A990AD3011F968C921F971196FC9365
:1003C000EE9313965C934E93129717963C922E924F
:1003D00016971996FC92EE9218971B96DC92CE9285
:1003E0001A971D96BC92AE921C97CF019FD4F30131
:1003F000828193819BD4D30114968D919C91159702
:1004000095D4F30182819381B6D4F12CF3E0FF15EA
:1004100090F00F2D10E00D5F1F4F000F111F060D04
:10042000171DD8018D919C9181D4F8018081918113
:10043000A2D4F394EBCFD30116968D919C9117978C
:1004400088D4F3018085918584D410E0123060F463
:10045000C301C3DEC301C6DE8FE097E20197F1F767
:1004600000C000001F5FF2CFD30116968D919C91C2
:10047000179781D4C301B1DEC301B4DEE7ECF0E02D
:100480003197F1F700C0000041E068E2C301FEDEF1
:10049000C30155DFC30157DF41E066E0C301F6DE6B
:1004A000C30149DFDF91CF911F910F91FF90EF9032
:1004B000DF90CF90BF90AF909F908F907F906F9084
:1004C0005F904F903F902F900895423020F0417000
:1004D000FC012685620FF0E44F9F600D11246068D7
:1004E00041E0D4DE0895FC012685621728F4878553
:1004F000481720F081E0089581E0089580E0089594
:10050000FB015081252F30E0240F311DFC01868531
:10051000E82FF0E0E217F30714F4582F541BFB0107
:1005200050830895EF92FF920F931F93CF93DF9321
:100530001F92CDB7DEB77C016983142F022F422FA3
:10054000612FD1DF811114C0402F612FC701BDDFA2
:10055000412FBE016F5F7F4FC701D2DF10E089815D
:10056000181730F440E060E2C70190DE1F5FF7CF5C
:100570000F90DF91CF911F910F91FF90EF90089511
:10058000AF92BF92CF92DF92FF920F931F93CF93C0
:10059000DF931F92CDB7DEB75C018B01F42ED22E14
:1005A000422F6F2DA0DF811122C04D2D6F2DC5016F
:1005B0008CDFF80101900020E9F73197E01BF10B87
:1005C000E9834F2DBE016F5F7F4FC50199DFF12C8D
:1005D0008981F81660F468018FEFC81AD80AF8010B
:1005E000608140E0C50152DEF3948601F1CF0F90A7
:1005F000DF91CF911F910F91FF90DF90CF90BF902F
:10060000AF900895542F213019F0223069F01CC0AA
:10061000FC012685FB0101900020E9F73197E61BDC
:10062000F70B422F4E1B11C0FC012685FB010190E8
:100630000020E9F73197E61BF70B30E02E1B3F0B4C
:1006400036952795422F01C040E0252F99DF089568
:100650008F929F92AF92BF92CF92DF92EF92FF92D2
:100660000F931F93CF93DF93019709F024C16F3F3E
:100670007F4F09F020C187E090E0B5D3EC0100E0A6
:1006800020E330E041E350E062E370E088D3D093B0
:100690009B00C0939A0087E090E0A5D3EC0101E0B5
:1006A00020E330E041E350E062E370E078D3D093A0
:1006B0009900C093980087E090E095D3EC0102E0A8
:1006C00020E330E041E350E062E370E068D3D09390
:1006D0009700C093960087E090E085D3EC0103E09B
:1006E00020E330E041E350E062E370E058D3D09380
:1006F0009500C093940087E090E075D3EC0104E08E
:1007000020E330E041E350E062E370E048D3D0936F
:100710009300C093920087E090E065D3EC0105E080
:1007200020E330E041E350E062E370E038D3D0935F
:100730009100C093900087E090E055D3EC0106E073
:1007400020E330E041E350E062E370E028D3D0934F
:100750008F00C0938E0080E190E035DDEC01A09029
:100760008E00B0908F00C0909000D0909100E090EB
:100770009200F090930000919400109195002091C8
:1007800096003091970040919800509199006091A7
:100790009A0070919B000F2EF2E48F2EF6E09F2EB0
:1007A000F02DD5DDD0938D00C0938C0087E090E0D4
:1007B0001AD3EC0105E026E330E047E350E068E3BC
:1007C00070E0EDD2D0938B00C0938A0087E090E078
:1007D0000AD3EC0103E026E330E047E350E068E3AE
:1007E00070E0DDD2D0938900C093880087E090E06C
:1007F000FAD2EC0104E026E330E047E350E068E39E
:1008000070E0CDD2D0938700C093860087E090E05F
:10081000EAD2EC0102E026E330E047E350E068E38F
:1008200070E0BDD2D0938500C093840087E090E053
:10083000E4D2EC01009184001091850020918600A3
:1008400030918700409188005091890060918A0022
:1008500070918B00EAD2D0938300C093820087E02E
:1008600090E0C1D2EC0100E026E330E047E350E045
:1008700068E370E094D2D0938100C093800089E057
:1008800090E0F8D0EC01609180007091810040E030
:10089000EDD1D0937F00C0937E0089E090E0EAD054
:1008A000EC01609180007091810041E0DFD1D09334
:1008B0007D00C0937C00DF91CF911F910F91FF903D
:1008C000EF90DF90CF90BF90AF909F908F90089562
:1008D0001F920F920FB60F9211242F933F934F93B5
:1008E0005F936F937F938F939F93AF93BF93EF9398
:1008F000FF93809182009091830042D38091A00069
:10090000811103C081E08093A000FF91EF91BF911E
:10091000AF919F918F917F916F915F914F913F9197
:100920002F910F900FBE0F901F9018951F920F924E
:100930000FB60F9211242F933F934F935F936F93B2
:100940007F938F939F93AF93BF93EF93FF93809188
:10095000820090918300E9D2FF91EF91BF91AF9116
:100960009F918F917F916F915F914F913F912F91C7
:100970000F900FBE0F901F9018951F93CF93DF938A
:10098000FA012081318126173707E9F0EB01182F92
:1009900071836083282F40E065E080918C00909106
:1009A0008D00C0DDBE0180E090E014D540E063D34F
:1009B000EC0120E0412FBC0180918C0090918D00D2
:1009C00021DECE01FCD8DF91CF911F91089583B72E
:1009D000856083BF89B7816089BF60917E00709117
:1009E0007F00809182009091830083D260917C008F
:1009F00070917D0080918200909183007AD27894EA
:100A00008091A0008823E1F31092A00080917E00E5
:100A100090917F002BD04EE950E0BC0180E0ADDF2B
:100A200080917C0090917D0021D04CE950E0BC0188
:100A300081E0A3DFE5CF6FEF7FEF81E090E008DE9C
:100A4000089580E0089580E0089580E00895FC0115
:100A50008581968188DB0895FC018581968176DB0E
:100A60000895FC018381948186D10895FC018781DA
:100A700090850895CF93DF93EC01CE0108D80097BD
:100A8000E1F3DF91CF910895BF92CF92DF92EF9281
:100A9000FF920F931F93CF93DF938C017B01B42EB2
:100AA000D8011796CC911797D0E0CC0FDD1F119687
:100AB0008D919C911297C80FD91FCB2CD12CC601B8
:100AC000E6D799838883F801878190E09C01220F03
:100AD000331F0180F281E02DE20FF31F208131816D
:100AE000232BF1F2D80113962D913C911497F90123
:100AF000E80FF91FB0821796EC911797F0E0EE0F10
:100B0000FF1F11968D919C911297E80FF91FA60176
:100B1000B701808191819BD9F80187818F5F6081C6
:100B200076D7978386818F5F8683DF91CF911F91E0
:100B30000F91FF90EF90DF90CF90BF900895EF92CC
:100B4000FF920F931F93CF93DF93EC018B01E42E61
:100B50008F81811104C0888181508F8302C08150B0
:100B60008F838F8190E09C01220F331FE981FA81EE
:100B7000E20FF31F20813181232BD9F12B813C819E
:100B8000F901E80FF91FF080FE0C6F2D70E0EF8186
:100B9000F0E0EE0FFF1F89819A81E80FF91F808135
:100BA000918196D8009789F3EF81F0E0EE0FFF1F57
:100BB00029813A81E20FF31F918380834E2D50E00B
:100BC0008F8190E0EB81FC81E80FF91F2081880F75
:100BD000991FE981FA81E80FF91F80819181B8019D
:100BE000820F911D34D98F81EB81FC81E80FF11DBB
:100BF000F0828F818F5F68810AD79F83DF91CF91C9
:100C00001F910F91FF90EF9008950F931F93CF9333
:100C1000DF931F92CDB7DEB78C0181E0898341E07D
:100C2000BE016F5F7F4FF801858196812DDFF8014E
:100C30008281F0E48F9FC0011124806A898341E0A2
:100C4000BE016F5F7F4FF8018581968178DF198241
:100C500041E0BE016F5F7F4FF801858196816FDFB4
:100C60000F90DF91CF911F910F910895EF92FF9216
:100C70000F931F93CF93DF93EC018B018AE690E0F3
:100C8000998388834A8389E090E093DA7C0161E06C
:100C900032DAFE82ED821C830B83C80147D08B8140
:100CA0009C8157D018861F82CE01AFDFDF91CF9194
:100CB0001F910F91FF90EF900895CF93DF93EC0178
:100CC0008B819C8146D08D819E8140DAFC012181FF
:100CD00030E0322F22273295307F329522952F70C7
:100CE00023273F70232738872F838281282B38873B
:100CF0002F838D819E8143DACE0187DFDF91CF91F3
:100D00000895DC011296ED91FC911397408121E04A
:100D100030E0B90116960C9002C0660F771F0A9456
:100D2000E2F7CB018095842380830895DC0112963D
:100D3000ED91FC911397408121E030E0C9011696B6
:100D40000C9002C0880F991F0A94E2F7842B8083CD
:100D50000895DC01ED91FC911197408121E030E094
:100D6000C90116960C9002C0880F991F0A94E2F7E9
:100D7000842B80830895DC01ED91FC9111974081D3
:100D800021E030E0B90116960C9002C0660F771F83
:100D90000A94E2F7CB0180958423808308950F9312
:100DA000CF93DF93EC01798368835B834A833D8330
:100DB0002C830E83A6DFCE01DEDFDF91CF910F9172
:100DC0000895DC011496ED91FC911597208130E097
:100DD000F90116960C9002C0F595E7950A94E2F792
:100DE000CF0181700895CF93DF93EC01CE014FD6F0
:100DF0000097E1F3DF91CF910895CF93DF93EC015A
:100E0000CE0145D60097E1F3DF91CF910895CF93BE
:100E1000DF93EC01CE013BD60097E1F3DF91CF9158
:100E20000895FC011282138208958F929F92AF92CF
:100E3000BF92CF92DF92EF92FF920F931F93CF93C7
:100E4000DF93EC016B017A015901480184E090E0E5
:100E5000DEDF8C01E6DF1A8309831882C60166DFB4
:100E6000C60189DFC70162DFC70185DFC50149DF30
:100E7000C5016FDFC4015ADFC4016BDF8DB1826D24
:100E80008DB9DF91CF911F910F91FF90EF90DF907F
:100E9000CF90BF90AF909F908F900895EF92FF9268
:100EA0000F931F93CF93DF938C017B01FC01C381D0
:100EB000CF5FC383D0E0CC0FDD1FBE01F80180817E
:100EC000918106D70097C9F3F8019183808323812C
:100ED00030E021503048220F331FFC01E20FF31F96
:100EE000F182E082DF91CF911F910F91FF90EF90FF
:100EF0000895FC0181819281D1DF0895DC01129671
:100F0000EC911297F0E0EE0FFF1F8D919C91E80F8E
:100F1000F91F808191810895FC016381662321F08E
:100F200082818F5F74D592830895CF93DF93FC0104
:100F3000A381B481868191E0980F9683A80FB11D9B
:100F40008FB18C9386819581891740F40380F48159
:100F5000E02DE80FF11D80818FB90FC0EF01818175
:100F60009281CCDFDC01ED91FC910484F585E02DCC
:100F70000995188289819A81CFDFDF91CF910895F9
:100F8000CF93DF93DC012C91211172C0EC01898198
:100F90009A81B4DFDC01ED91FC910680F781E02DB0
:100FA00009958D83882309F460C089819A81A6DF21
:100FB000DC01ED91FC910084F185E02D09959C8385
:100FC0008B831E8289819A8199DFDC01ED91FC91EE
:100FD0000480F581E02D0995811104C08DB18F7DCC
:100FE0008DB905C0813019F48DB180628DB98981C8
:100FF0009A8184DFDC01ED91FC910280F381E02D88
:101000000995811104C08DB18B7F8DB905C08130E8
:1010100019F48DB184608DB989819A816FDFDC010B
:10102000ED91FC910190F081E02D0995811104C0B2
:101030008DB1877F8DB905C0813019F48DB188607D
:101040008DB989819A815ADFDC01ED91FC9102848E
:10105000F385E02D0995EB81FC818E81E80FF11D70
:1010600080818FB981E0888303C089819A8154DFB0
:10107000DF91CF9108952F923F924F925F926F929E
:101080007F928F929F92AF92BF92CF92DF92EF9218
:10109000FF920F931F93CF93DF9300D000D000D027
:1010A000CDB7DEB72B013C01942E2DB63EB69F770F
:1010B0006B837C838D839E8361D1A62EB72EC82E31
:1010C000D92E262F372F482F592F812C01C08F2C36
:1010D000CA01B9012AE030E040E050E0A4D4FF2486
:1010E000F394F80C211531054105510581F799203C
:1010F00021F083948394890C01C08F2C20E030E090
:10110000A901C301B20136D188230CF483948394DE
:101110008F2D90E00196ADB7BEB7A81BB90B0FB6E7
:10112000F894BEBF0FBEADBF2DB73EB72F5F3F4F88
:101130003A8329838901EE24E394FE14B8F06A2DE2
:101140007B2D8C2D9D2D2AE030E040E050E06BD4CB
:10115000A22EB32EC42ED52EEF2DF0E0EE19F109FC
:10116000E00FF11F605D6083E394E7CFE981FA81CE
:10117000EF0DF11D1082E82CF12CC70188D48C01F1
:10118000892BC9F320E030E0A901C301B201F2D0FC
:1011900088235CF4A70168E770E0C80187D6A7013F
:1011A00069817A81C80163D605C0A70169817A8106
:1011B000C8017CD6992009F459C0A7016AE770E0FC
:1011C000C80155D66A2D7B2D8C2D9D2D03D19B01F9
:1011D000AC016B817C818D819E8167D02B013C01AC
:1011E000692D70E080E090E0F5D09B01AC0160E0FB
:1011F00070E080E291E403D24ED2C0D0EBD09B01EC
:10120000AC01C301B20198D146D2B8D09B01AC0168
:10121000892D90E001966DB77EB7681B790B0FB6EC
:10122000F8947EBF0FBE6DBF8DB79EB701965C016F
:101230006C0188248394981488F0CA01B9012AE0CB
:1012400030E040E050E0EFD3E92DF0E0E819F1099B
:10125000EC0DFD1D605D60838394EDCFF501E90D1C
:10126000F11D1082A701B501C80101D6C8010FB652
:10127000F8943EBE0FBE2DBE26960FB6F894DEBF84
:101280000FBECDBFDF91CF911F910F91FF90EF90D7
:10129000DF90CF90BF90AF909F908F907F906F9096
:1012A0005F904F903F902F9008955058BB27AA27EA
:1012B0000ED008C1F9D030F0FED020F031F49F3FBD
:1012C00011F41EF4EEC00EF4E095E7FBE4C0E92F44
:1012D0000AD180F3BA17620773078407950718F0DD
:1012E00071F49EF522C10EF4E0950B2EBA2FA02DBD
:1012F0000B01B90190010C01CA01A0011124FF27C3
:10130000591B99F0593F50F4503E68F11A16F040BD
:10131000A22F232F342F4427585FF3CF46953795BC
:101320002795A795F0405395C9F77EF41F16BA0B81
:10133000620B730B840BBAF09150A1F0FF0FBB1F2F
:10134000661F771F881FC2F70EC0BA0F621F731F78
:10135000841F48F4879577956795B795F7959E3FD5
:1013600008F0B3CF9395880F08F09927EE0F979563
:10137000879508956CD008F481E00895BCD088F07A
:101380009F5790F0B92F9927B751A0F0D1F0660F71
:10139000771F881F991F1AF0BA95C9F712C0B1308C
:1013A00081F0C3D0B1E00895C0C0672F782F88279F
:1013B000B85F39F0B93FCCF3869577956795B395CB
:1013C000D9F73EF490958095709561957F4F8F4F3A
:1013D0009F4F0895E89409C097FB3EF4909580953F
:1013E000709561957F4F8F4F9F4F9923A9F0F92FEB
:1013F00096E9BB279395F695879577956795B79569
:10140000F111F8CFFAF4BB0F11F460FF1BC06F5F4E
:101410007F4F8F4F9F4F16C0882311F096E911C060
:10142000772321F09EE8872F762F05C0662371F081
:1014300096E8862F70E060E02AF09A95660F771F95
:10144000881FDAF7880F9695879597F90895990F71
:101450000008550FAA0BE0E8FEEF16161706E8077E
:10146000F907C0F012161306E407F50798F0621B9F
:10147000730B840B950B39F40A2661F0232B242B74
:10148000252B21F408950A2609F4A140A6958FEF93
:10149000811D811D089597F99F6780E870E060E0E5
:1014A00008959FEF80EC089500240A9416161706FD
:1014B00018060906089500240A9412161306140645
:1014C00005060895092E0394000C11F4882352F0A8
:1014D000BB0F40F4BF2B11F460FF04C06F5F7F4F60
:1014E0008F4F9F4F089557FD9058440F551F59F047
:1014F0005F3F71F04795880F97FB991F61F09F3F01
:1015000079F087950895121613061406551FF2CF29
:101510004695F1DF08C0161617061806991FF1CF79
:1015200086957105610508940895E894BB276627A0
:101530007727CB0197F908950BD0C4CFB5DF28F0FA
:10154000BADF18F0952309F0A6CFABCF1124EECF68
:10155000CADFA0F3959FD1F3950F50E0551F629F0E
:10156000F001729FBB27F00DB11D639FAA27F00DFC
:10157000B11DAA1F649F6627B00DA11D661F829F23
:101580002227B00DA11D621F739FB00DA11D621F08
:10159000839FA00D611D221F749F3327A00D611D25
:1015A000231F849F600D211D822F762F6A2F112407
:1015B0009F5750408AF0E1F088234AF0EE0FFF1F5A
:1015C000BB1F661F771F881F91505040A9F79E3F91
:1015D000510570F060CFAACF5F3FECF3983EDCF38B
:1015E000869577956795B795F795E7959F5FC1F7CE
:1015F000FE2B880F911D9695879597F90895FA010E
:10160000EE0FFF1F30962105310599F16115710527
:1016100061F48038BFE39B0749F1689490388105F5
:1016200061F08038BFEF9B0741F0992342F5FF3FFF
:10163000E1053105210511F1E8940894E795D901F8
:10164000AA2329F4AB2FBE2FF85FD0F310C0FF5FA1
:1016500070F4A695E0F7F73950F019F0FF3A38F436
:101660009F779F930CD00F9007FC905808953EF001
:1016700018CF60E070E080E89FE308954FE79F7720
:101680005F934F933F932F93E7D02F913F914F91CB
:101690005F9152DF25C02FDFE0F09E37D8F09639FA
:1016A000B8F49E3848F4672F782F8827985FF9CFD1
:1016B00086957795679593959539D0F3B62FB17048
:1016C0006B0F711D811D20F4879577956795939514
:1016D00033C04DC02BCF19F40EF0DDCE26CFE1CEB6
:1016E0000ADFC8F39638C0F707F80F92E8942BE3A7
:1016F0003AEA48EB5FE72EDF0F920F920F924DB759
:101700005EB70F92E9D0E6E2F0E03FD04F915F91F3
:10171000EF91FF91E595EE1FFF1F49F0FE57E0683E
:101720004427EE0F441FFA95E1F74195550B5BD026
:101730000F9007FE4FC00895882371F4772321F09E
:101740009850872B762F07C0662311F499270DC078
:101750009051862B70E060E02AF09A95660F771F13
:10176000881FDAF7880F9695879597F908959F3F18
:1017700031F0915020F4879577956795B795880F4C
:10178000911D9695879597F90895DF93CF931F93B1
:101790000F93FF92EF92DF927B018C01689405C05A
:1017A000DA2EEF01D5DEFE01E894A5912591359161
:1017B00045915591AEF3EF018ADDFE019701A80135
:1017C000DA9479F7DF90EF90FF900F911F91CF910E
:1017D000DF9108959B01AC0160E070E080E89FE339
:1017E000AEC059CEC4CF87DEE8F39923D9F3940F66
:1017F000511DBBF39150504094F059F0882332F0C2
:10180000660F771F881F91505040C1F79E3F5105CA
:1018100044F7880F911D9695879597F908955F3F36
:10182000ACF0983E9CF0BB27869577956795B79569
:1018300008F4B1609395C1F7BB0F58F711F460FF3E
:10184000E8CF6F5F7F4F8F4F9F4FE3CF6FCE0EF08C
:101850008ECF27CE68941FCE4EDEC8F39923D1F3E6
:10186000C6F3DF93CF931F930F93FF92C92FDD270A
:1018700088232AF02197660F771F881FDAF720E068
:1018800030E040E85FEB9FE3883920F0803E30F0A5
:1018900021968F770BDDEEE4F0E003C007DDEBE788
:1018A000F0E073DF8B01BE01EC01FB2E6F57710975
:1018B0007595771F880B990B8FDD28E132E741E39F
:1018C0005FE346DEAF2D9801AE01FF900F911F91AF
:1018D000CF91DF91FCDCF6CDFA01DC01AA0FBB1F32
:1018E0009B01AC01BF5728F42227332744275078A7
:1018F0001FC0B75188F4AB2F002446953795279524
:10190000011CA395D2F3002069F0220F331F441F5E
:10191000B395DAF30DD0C9CC61307105A0E88A0720
:10192000B94630F49B01AC01662777278827907869
:10193000309621F0208331834283538308950CD065
:10194000C1CDB9DD40F0B0DD30F021F45F3F19F0DA
:10195000A2CD5111EBCDA5CDC6DD98F39923C9F3E6
:101960005523B1F3951B550BBB27AA2762177307A5
:10197000840738F09F5F5F4F220F331F441FAA1F59
:10198000A9F333D00E2E3AF0E0E830D09150504019
:10199000E695001CCAF729D0FE2F27D0660F771FC7
:1019A000881FBB1F261737074807AB07B0E809F0A9
:1019B000BB0B802DBF01FF2793585F4F2AF09E3F3E
:1019C000510568F068CDB2CD5F3FECF3983EDCF393
:1019D000869577956795B795F7959F5FC9F7880FB7
:1019E000911D9695879597F90895E1E0660F771F09
:1019F000881FBB1F621773078407BA0720F0621B9A
:101A0000730B840BBA0BEE1F88F7E0950895991BB2
:101A100079E004C0991F961708F0961B881F7A95E5
:101A2000C9F780950895A1E21A2EAA1BBB1BFD01E0
:101A30000DC0AA1FBB1FEE1FFF1FA217B307E407AD
:101A4000F50720F0A21BB30BE40BF50B661F771F05
:101A5000881F991F1A9469F76095709580959095E5
:101A60009B01AC01BD01CF010895A29FB001B39FBE
:101A7000C001A39F01D0B29F700D811D1124911D43
:101A80000895EE0FFF1F0590F491E02D09940F9338
:101A90001F93CF93DF938230910510F482E090E0A2
:101AA000E091A300F091A40020E030E0A0E0B0E0DD
:101AB000309719F1408151810281138148175907EC
:101AC000C8F08417950769F4109731F012960C93BB
:101AD000129713961C9327C00093A3001093A400A1
:101AE00022C02115310519F04217530718F49A0145
:101AF000BD01EF01DF01F801DBCF21153105F9F060
:101B0000281B390B2430310580F48A819B816115B3
:101B1000710521F0FB019383828304C09093A4009C
:101B20008093A300FE01329644C0FE01E20FF31F32
:101B30008193919322503109398328833AC02091AF
:101B4000A1003091A200232B41F42091620030913A
:101B500063003093A2002093A10020916000309197
:101B600061002115310541F42DB73EB74091640065
:101B700050916500241B350BE091A100F091A2006B
:101B8000E217F307A0F42E1B3F0B2817390778F054
:101B9000AC014E5F5F4F2417350748F04E0F5F1FB3
:101BA0005093A2004093A1008193919302C0E0E082
:101BB000F0E0CF01DF91CF911F910F910895CF9366
:101BC000DF93009709F481C0FC01329713821282DF
:101BD000A091A300B091A400109781F420813181DD
:101BE000820F931F2091A1003091A200281739077E
:101BF00051F5F093A200E093A10067C0ED0120E051
:101C000030E0CE17DF0740F44A815B819E01411529
:101C10005105F1F0EA01F5CFD383C28340815181B0
:101C2000840F951FC817D90759F488819981840FAB
:101C3000951F0296918380838A819B8193838283FF
:101C40002115310529F4F093A400E093A3003DC0D1
:101C5000E901FB83EA8349915991C40FD51FEC1721
:101C6000FD0761F480819181840F951F0296E9013F
:101C700099838883828193819B838A83E0E0F0E06B
:101C800012968D919C911397009719F0FD01DC013C
:101C9000F7CF8D919C9111979D012E5F3F4F820F41
:101CA000931F2091A1003091A2002817390769F4F1
:101CB000309729F41092A4001092A30002C013825E
:101CC0001282B093A200A093A100DF91CF9108955A
:101CD000A0E0B0E0EDE6FEE001C1EC01009719F4F0
:101CE000CB01D5DEB0C0FC01E60FF71F9C012250EE
:101CF0003109E217F30708F4A4C0D9010D911C9132
:101D0000119706171707A8F00530110508F497C0BA
:101D1000C80104978617970708F491C0025011096B
:101D2000061B170B019311936D937C93CF0147DF33
:101D300086C05B01A01AB10A4C01800E911EA091D1
:101D4000A300B091A400612C712CE12CF12C109710
:101D500009F446C08D919C911197A815B905B1F56C
:101D60006C0142E0C40ED11CCA14DB0478F14C01B2
:101D70008A189B08640142E0C40ED11C1296BC90E4
:101D800012971396AC91B5E0CB16D10440F0B28215
:101D9000A38391828082D9016D937C9309C00E5FE9
:101DA0001F4F800F911FF90191838083EB2DFA2F34
:101DB000E114F10431F0D7011396FC93EE931297DE
:101DC0003EC0F093A400E093A30039C068167906E2
:101DD00008F43C017D0112960D90BC91A02DB7CF67
:101DE0008091A1009091A20088169906E1F46616F0
:101DF0007706C8F48091600090916100009741F4EB
:101E00008DB79EB74091640050916500841B950B7F
:101E1000E817F907B0F4F093A200E093A100F901EC
:101E2000718360830CC0CB0132DE7C01009749F0E6
:101E3000A801BE010CD0CE01C2DEC70104C0CE0194
:101E400002C080E090E0CDB7DEB7EEE063C0FB01FA
:101E5000DC0102C001900D9241505040D8F7089526
:101E6000DC0101C06D9341505040E0F70895DC0162
:101E7000FB014150504070F00D900020D1F71197B8
:101E800004C001900D92002061F041505040C8F70D
:101E90001C92BF0101900020E9F7E61BF70BAE0F83
:101EA000BF1F0894A80BB90BCD010895DC01FB01FD
:101EB0004150504058F049F001900D920020C1F778
:101EC000E61BF70B3197CF0108951C92019000207B
:101ED000E9F7F6CF2F923F924F925F926F927F92E7
:101EE0008F929F92AF92BF92CF92DF92EF92FF922A
:101EF0000F931F93CF93DF93CDB7DEB7CA1BDB0BD6
:101F00000FB6F894DEBF0FBECDBF09942A8839887A
:101F100048885F846E847D848C849B84AA84B98481
:101F2000C884DF80EE80FD800C811B81AA81B9818D
:101F3000CE0FD11D0FB6F894DEBF0FBECDBFED01A1
:061F40000895F894FFCFA4
:101F46000000A5002000000000002105230525054E
:0C1F560027052C0531055D062D002E002E
:00000001FF
