:100000005CC080C07FC07EC07DC07CC07BC07AC029
:1000100079C09BC377C076C075C074C073C072C00E
:1000200071C06CC36FC041C181C180C17FC17EC13D
:100030007DC17CC17BC13EC179C178C177C176C128
:1000400075C174C173C172C171C170C16FC16EC11C
:100050006DC16CC16BC133C169C168C167C166C183
:1000600065C164C163C121C161C160C15FC15EC1BD
:100070005DC15CC15BC123C159C158C157C156C1E3
:1000800055C154C153C111C151C150C14FC14EC11D
:100090004DC14CC14BC100C149C148C147C146C156
:1000A00045C144C143C142C141C140C13FC13EC13C
:1000B0003DC13CC13BC1F9C0090411241FBECFE5BD
:1000C000D4E0DEBFCDBF10E0A0E6B0E0E4EFFEE09C
:1000D00002C005900D92A239B107D9F720E0A2E93C
:1000E000B0E001C01D92AA39B207E1F710E0CDE5FA
:1000F000D0E003C02197FE01D5D4CC35D107D1F78C
:100100004BD3F6C67DCF60E573EC80E090E00895B8
:10011000FC018681813009F016820895CF93DF9328
:10012000EC01CE01C5D40097E1F3DF91CF910895A2
:10013000FC0111AE0895FF920F931F93CF93DF93AD
:100140008C01F62EFC01C4ADD0E0EC0FFD1F638FD7
:10015000FE01EE0FFF1FE80FF91F108617828F2D8B
:1001600090E0A6D4FE01EE0FFF1FE00FF11F908775
:100170008783892BA1F3DF91CF911F910F91FF907E
:100180000895CF93DF9300D000D0CDB7DEB71982AA
:100190001A821B821C8221E0FE013196253048F52F
:1001A000862F881F8827881F90E09695982F88278C
:1001B00097958795962F9077892B9081892B8860CA
:1001C0008D7F8083413019F48E7F808304C041117C
:1001D00002C08160808320FD06C080818B7F808388
:1001E0006295607F03C080818460808331962F5F39
:1001F000D5CF69817A818B819C810F900F900F9070
:100200000F90DF91CF910895FC0124AD2F5F9DECFD
:10021000299F912D1124969596959695990F892F42
:10022000880F880F980F291B24AF82AD8F5F82AF94
:100230000895CF93DF93EC01EBADF0E0EE0FFF1FDD
:10024000E80FF91F87819085CBD49BAD9F5F8DEC24
:10025000989F812D1124869586958695880F282F45
:10026000220F220F820F981B9BAFCE0161DF8AAD58
:1002700081508AAFDF91CF910895CF93DF93FC0136
:100280006583462F50E04934510508F04FC0EC011A
:10029000FA01ED5EFF4F09948A819B81ACD3CE01B8
:1002A00047DF8A819B81E9D241C042DF8A819B81FD
:1002B000B8D33CC06C818A819B81E2D237C08AADC1
:1002C000882379F139AD8BAD90E0FE01E80FF91F7D
:1002D000238D321718F5880F991FFE01E80FF91FBB
:1002E00085A196A1009731F0F5E8FA95F1F70000A5
:1002F000C297F8CFEBADF0E0EE0FFF1FEC0FFD1F44
:100300000780F085E02D89ADE80FF11D60818A81BD
:100310009B81B6D289AD8F5F89AF08C0CE0189DFDE
:1003200005C08A819B8167D382E08E83DF91CF9164
:100330000895FF920F931F93CF93DF93EC01F62E56
:100340008A018AAD8A30E9F364E0CE01F4DE41E04F
:100350006F2DCE0116DFECADF0E0EE0FFF1FEC0FBE
:10036000FD1F0780F085E02D608371838283938376
:10037000ECADF0E0EE0FFF1FEC0FFD1F16A305A381
:10038000CE0142DF81E08E83DF91CF911F910F91EB
:10039000FF90089542E350E06CE0CBDF089542E324
:1003A00050E068E0C6DF089540ED57E061E0C1DF4E
:1003B0000895EF92FF920F931F93CF93DF93EC0179
:1003C0008AE690E0998388837B836A8350E0440FB8
:1003D000551F440F551F440F551F30E0220F331F88
:1003E000220F331F10E0000F111F4064242B022B3B
:1003F0000C8388EF8D83F701F695E795F695E795E1
:100400009F01ABE7B4E142D3AC01569547954DAFA0
:1004100024E6249FC001259F900D1124E81AF90AB3
:10042000EEAECE0185DE1AAE1BAE1CAE48E853E13F
:1004300063E3CE017EDF44E650E062E3CE0179DF84
:1004400042E350E068E2CE0174DFCE01A8DFCE01C6
:10045000ABDF42E350E066E0CE016BDFCE019ADF16
:10046000DF91CF911F910F91FF90EF900895CF9260
:10047000DF92FF920F931F93CF93DF93EC016A01FA
:1004800070E0660F771F660F771F660F771F606437
:1004900042E350E04EDF6CE1CE014DDEF12C8CAD3D
:1004A00090E0FE01E80FF91F238DF216D8F48601C3
:1004B0000F5F1F4F40E0F6016081CE0162DEECADC0
:1004C000F0E0EE0FFF1FEC0FFD1F0780F085E02D21
:1004D000EF0DF11D6083718382839383F4E0FF0E3F
:1004E0006801DDCF880F991FFE01E80FF91F82E335
:1004F00090E096A385A3CE0187DE81E08E83DF9115
:10050000CF911F910F91FF90DF90CF9008954230CF
:1005100020F04170FC0125AD620FF0E44F9F600DAB
:100520001124606842E350E004DF0895FC0125AD2A
:10053000621728F486AD481720F081E0089581E025
:10054000089580E00895FB015081252F30E0240FAD
:10055000311DFC0185ADE82FF0E0E217F30714F43C
:10056000582F541BFB0150830895AF92BF92DF9226
:10057000EF92FF920F931F93CF93DF931F92CDB70C
:10058000DEB77C015B01142F022F422F612FCEDFDB
:10059000811150C0402F612FC701B9DFD701DA9612
:1005A0008C918A30D9F3F50101900020E9F7319759
:1005B000EA19FB09E983412FBE016F5F7F4FC70135
:1005C000C2DF6981660F660FC701B5DDD12CF70167
:1005D00084AD90E0E80FF91F238DD216E8F4850171
:1005E0000F5F1F4F40E0D5016C91C701CADDD701F5
:1005F000DC96EC91F0E0EE0FFF1FEE0DFF1D078083
:10060000F085E02DED0DF11D60837183828393836E
:10061000B4E0DB0E5801DBCF880F991FF701E80F1C
:10062000F91F82E390E096A385A3C701EDDD81E089
:10063000F70186830F90DF91CF911F910F91FF906B
:10064000EF90DF90BF90AF900895542F213019F0B4
:10065000223069F01CC0FC0125ADFB010190002097
:10066000E9F73197E61BF70B422F4E1B11C0FC0137
:1006700025ADFB0101900020E9F73197E61BF70B50
:1006800030E02E1B3F0B36952795422F01C040E0EE
:10069000252F6BDF0895EF92FF920F93CF93DF9397
:1006A000019731F56F3F7F4F19F58AE090E0ECD06C
:1006B000EC0140E052E16AE770E0FED0D093950093
:1006C000C09394008FE390E029DDEC0160919400E9
:1006D000709195000F2EF4EDEF2EF7E0FF2EF02D28
:1006E00001E020E040E065DED0939300C0939200EB
:1006F000DF91CF910F91FF90EF9008951F920F928D
:100700000FB60F9211242F933F934F935F936F93E4
:100710007F938F939F93AF93BF93EF93FF938091BA
:1007200094009091950025D1FF91EF91BF91AF91E9
:100730009F918F917F916F915F914F913F912F91F9
:100740000F900FBE0F901F9018951F920F920FB62B
:100750000F9211242F933F934F935F936F937F9347
:100760008F939F93AF93BF93EF93FF9380919400E8
:100770009091950017D1FF91EF91BF91AF919F910B
:100780008F917F916F915F914F913F912F910F903A
:100790000FBE0F901F90189583B7856083BF89B7F0
:1007A000816089BF60919200709193008091940064
:1007B00090919500CBD078944BE850E061E0809127
:1007C00092009091930053DE20E045E060E770E0F6
:1007D0008091920090919300C8DE22E042E066E7AB
:1007E00070E080919200909193002FDF23E041E12F
:1007F00060E870E08091920090919300B6DE23E073
:1008000040E069E870E08091920090919300ADDE45
:10081000FFCF6FEF7FEF81E090E03DDF0895CF9253
:10082000DF92EF92FF92CF93DF93EC016A017B019D
:100830008C819D81AE81BF8184179507A607B7077C
:10084000A9F0688179818A819B81A7019601FCD0FA
:10085000DA01C9014097A109B109B695A795979505
:10086000879580B9CC82DD82EE82FF82DF91CF91C5
:10087000FF90EF90DF90CF90089585EA86BF0895AE
:1008800063B985E886BF0895CF93DF93EC01CE016D
:100890000FD10097E1F3DF91CF910895CF93DF93CC
:1008A000EC01CE0105D10097E1F3DF91CF910895DE
:1008B000FC01128213820895CF92DF92EF92FF9291
:1008C0000F931F93CF93DF93EC016A017B0184E0C8
:1008D00090E0E4DF8C01ECDF19870887C882D982B9
:1008E000EA82FB82DF91CF911F910F91FF90EF90F1
:1008F000DF90CF900895EF92FF920F931F93CF93C5
:10090000DF938C017B01FC01C381CF5FC383D0E007
:10091000CC0FDD1FBE01F80180819181EAD10097E3
:10092000C9F3F80191838083238130E0215030485E
:10093000220F331FFC01E20FF31FF182E082DF91EF
:10094000CF911F910F91FF90EF900895FC0180854A
:100950009185D1DF0895DC011296EC911297F0E0B9
:10096000EE0FFF1F8D919C91E80FF91F80819181FF
:100970000895DC0118968D919C911997ECDFDC01AC
:10098000ED91FC910480F581E02D61B1687F0995BE
:100990000895FC016381662321F082818F5F48D036
:1009A00092830895CF93DF9306B600FC21C0EC013B
:1009B00088859985D0DFDC01ED91FC910280F3817F
:1009C000E02D0995813089F488859985C4DFDC01A3
:1009D000ED91FC910190F081E02D0995AB01BC01F6
:1009E000CE011DDFCE0149DF03C088859985D1DFA7
:1009F000DF91CF910895CF93DF93EC0184E986BF17
:100A000088859985A8DFDC01ED91FC910480F58152
:100A1000E02D68EF099588859985BBDFDF91CF913F
:100A2000089524E126BFFC0180859185B2DF0895F9
:100A3000991B79E004C0991F961708F0961B881F30
:100A40007A95C9F780950895A1E21A2EAA1BBB1BBF
:100A5000FD010DC0AA1FBB1FEE1FFF1FA217B3078A
:100A6000E407F50720F0A21BB30BE40BF50B661FA0
:100A7000771F881F991F1A9469F760957095809564
:100A800090959B01AC01BD01CF010895A29FB001DB
:100A9000B39FC001A39F01D0B29F700D811D11248F
:100AA000911D0895EE0FFF1F0590F491E02D09941C
:100AB0000F931F93CF93DF938230910510F482E060
:100AC00090E0E0919800F091990020E030E0A0E003
:100AD000B0E0309719F140815181028113814817AC
:100AE0005907C8F08417950769F4109731F01296EA
:100AF0000C93129713961C9327C0009398001093A1
:100B0000990022C02115310519F04217530718F436
:100B10009A01BD01EF01DF01F801DBCF211531059D
:100B2000F9F0281B390B2430310580F48A819B8130
:100B30006115710521F0FB019383828304C09093BA
:100B4000990080939800FE01329644C0FE01E20FA6
:100B5000F31F8193919322503109398328833AC03E
:100B60002091960030919700232B41F42091620050
:100B7000309163003093970020939600209160009D
:100B8000309161002115310541F42DB73EB74091F8
:100B9000640050916500241B350BE0919600F091A4
:100BA0009700E217F307A0F42E1B3F0B2817390715
:100BB00078F0AC014E5F5F4F2417350748F04E0FB9
:100BC0005F1F50939700409396008193919302C0CA
:100BD000E0E0F0E0CF01DF91CF911F910F910895F8
:100BE000CF93DF93009709F481C0FC013297138201
:100BF0001282A0919800B0919900109781F4208101
:100C00003181820F931F2091960030919700281711
:100C1000390751F5F0939700E093960067C0ED0116
:100C200020E030E0CE17DF0740F44A815B819E016F
:100C300041155105F1F0EA01F5CFD383C28340811C
:100C40005181840F951FC817D90759F4888199815C
:100C5000840F951F0296918380838A819B81938361
:100C600082832115310529F4F0939900E0939800CF
:100C70003DC0E901FB83EA8349915991C40FD51F17
:100C8000EC17FD0761F480819181840F951F029616
:100C9000E90199838883828193819B838A83E0E041
:100CA000F0E012968D919C911397009719F0FD0139
:100CB000DC01F7CF8D919C9111979D012E5F3F4FE5
:100CC000820F931F209196003091970028173907C3
:100CD00069F4309729F4109299001092980002C09C
:100CE00013821282B0939700A0939600DF91CF9168
:100CF0000895A0E0B0E0EEE7F6E0C7C0EC01009791
:100D000019F4CB01D5DEB0C0FC01E60FF71F9C0142
:100D100022503109E217F30708F4A4C0D9010D915C
:100D20001C91119706171707A8F00530110508F454
:100D300097C0C80104978617970708F491C002501E
:100D40001109061B170B019311936D937C93CF012F
:100D500047DF86C05B01A01AB10A4C01800E911ECC
:100D6000A0919800B0919900612C712CE12CF12C8C
:100D7000109709F446C08D919C911197A815B9055B
:100D8000B1F56C0142E0C40ED11CCA14DB0478F149
:100D90004C018A189B08640142E0C40ED11C1296D3
:100DA000BC9012971396AC91B5E0CB16D10440F0ED
:100DB000B282A38391828082D9016D937C9309C012
:100DC0000E5F1F4F800F911FF90191838083EB2DE0
:100DD000FA2FE114F10431F0D7011396FC93EE934E
:100DE00012973EC0F0939900E093980039C06816BE
:100DF000790608F43C017D0112960D90BC91A02D5E
:100E0000B7CF809196009091970088169906E1F4EB
:100E100066167706C8F48091600090916100009793
:100E200041F48DB79EB74091640050916500841BDA
:100E3000950BE817F907B0F4F0939700E09396004C
:100E4000F901718360830CC0CB0132DE7C01009715
:100E500049F0A801BE010CD0CE01C2DEC70104C01A
:100E6000CE0102C080E090E0CDB7DEB7EEE029C051
:100E7000FB01DC0102C001900D9241505040D8F7B7
:100E800008952F923F924F925F926F927F928F922E
:100E90009F92AF92BF92CF92DF92EF92FF920F9309
:100EA0001F93CF93DF93CDB7DEB7CA1BDB0B0FB613
:100EB000F894DEBF0FBECDBF09942A8839884888D0
:100EC0005F846E847D848C849B84AA84B984C88466
:100ED000DF80EE80FD800C811B81AA81B981CE0F5D
:100EE000D11D0FB6F894DEBF0FBECDBFED01089542
:040EF000F894FFCFA4
:100EF40000009A00200000000000830088003D01EB
:100F040068656C6C6F00616C69676E6D656E74000A
:100F14006F766572666C6F770001001F11111111F5
:020F2400111F9B
:00000001FF
