:100000001EC038C037C036C035C034C033C032C05F
:1000100031C0AAC12FC02EC02DC02CC02BC02AC0F9
:1000200029C028C027C0F0C297C2E6C2DDC2D4C230
:10003000CBC2C2C2B9C2B0C2A7C29EC295C211246D
:100040001FBECFE5D4E0DEBFCDBF10E0A0E6B0E03C
:10005000E4E4FBE002C005900D92AE37B107D9F79A
:1000600020E0AEE7B0E001C01D92A338B207E1F78F
:100070008ED166C5C5CFFC0184819581DCD30895FE
:10008000FC0184819581E9D30895FF920F931F931A
:10009000CF93DF93EC01F12C83E08F1590F00F2DBF
:1000A00010E00D5F1F4F000F111F0C0F1D1FF801F7
:1000B00080819181C0D3F8018081918194D3F394A0
:1000C000EBCF8A819B81B7D388819981C6D3CE013A
:1000D000D2DF8C859D85E7D3182FCE01D1DFCE01ED
:1000E000CADFCE01CDDF1111F2CFF12CF3E0FF1505
:1000F00090F00F2D10E00D5F1F4F000F111F0C0F20
:100100001D1FF8018081918183D3F8018081918145
:10011000A4D3F394EBCF8A819B819FD3DF91CF91BE
:100120001F910F91FF900895EF92FF920F931F93ED
:10013000CF93DF93EC01E62E142FA7DF113021F4CB
:10014000888199818AD305C0111103C08881998162
:1001500072D30E2D10E015950795159507951595F9
:10016000079515950795F12C81E08F1558F1CE0173
:1001700082DF10E0143008F5812F90E0202F30E06E
:10018000012E02C0359527950A94E2F720FF0AC098
:10019000FC013396EE0FFF1FEC0FFD1F8081918154
:1001A0004AD309C0FC013396EE0FFF1FEC0FFD1F71
:1001B0008081918152D31F5FDDCFCE0161DFF39447
:1001C0000E2DD2CFDF91CF911F910F91FF90EF9025
:1001D0000895423020F04170FC012685620FF0E462
:1001E0004F9F600D1124606841E09EDF089541E05B
:1001F0006CE09ADF089541E068E096DF089541E001
:1002000061E092DF08956F927F928F92AF92BF92DA
:10021000CF92DF92EF92FF920F931F93CF93DF93D2
:10022000CDB7DEB73C01CB01F301868671836083D5
:10023000538342833583248317830683F186E086C4
:10024000D386C286B586A486E3D2F30182819381E8
:10025000DFD2F30184819581DBD2F3018281938126
:10026000FCD2F12CF3E0FF1590F00F2D10E00D5FA4
:100270001F4F000F111F060D171DF801808191817E
:10028000C7D2F80180819181E8D2F394EBCFF301DA
:1002900086819781D0D2F30180859185CCD210E000
:1002A000123090F4C301E7DE8FE99FE00197F1F788
:1002B00000C00000C301E4DEEFE9FFE03197F1F791
:1002C00000C000001F5FECCFF30186819781C5D28B
:1002D000C301D1DE8FE99FE00197F1F700C0000074
:1002E000C301CEDEEFE9FFE03197F1F700C0000077
:1002F00041E068E2C30118DFC3017DDFC3017FDF96
:1003000041E066E0C30110DFC30171DFDF91CF91EF
:100310001F910F91FF90EF90DF90CF90BF90AF9023
:100320008F907F906F9008950F931F93CF93DF93DB
:100330008C01EB01642F422F4CDF6881662329F08A
:10034000219640E0C801F0DEF8CFDF91CF911F91F8
:100350000F910895CF93DF93EC01CE01D0D2009797
:10036000E1F3DF91CF9108951F920F920FB60F9294
:1003700011248F9380917E00811103C081E08093CE
:100380007E008F910F900FBE0F901F901895CF9306
:10039000DF9300D000D0CDB7DEB783B7846083BFD2
:1003A00089B7816089BF87E090E09FD23C0100E07F
:1003B00026E330E047E350E068E370E062D287E094
:1003C00090E093D22C0101E026E330E047E350E0D7
:1003D00068E370E056D287E090E087D21C0102E02B
:1003E00026E330E047E350E068E370E04AD287E07C
:1003F00090E07BD29A83898303E026E330E047E3F1
:1004000050E068E370E03DD287E090E06ED27C017E
:1004100004E026E330E047E350E068E370E031D2E7
:1004200087E090E062D26C0105E026E330E047E32C
:1004300050E068E370E025D287E090E056D25C019E
:1004400006E026E330E047E350E068E370E019D2CD
:100450008FE090E07FDF9C838B836894882484F80E
:1004600009811A819101A201B301CDDE87E090E0FC
:100470003CD23C0100E020E330E041E350E062E3A5
:1004800070E0FFD187E090E030D22C0101E020E362
:1004900030E041E350E062E370E0F3D187E090E0C8
:1004A00024D21C0102E020E330E041E350E062E3AB
:1004B00070E0E7D187E090E018D29A83898303E067
:1004C00020E330E041E350E062E370E0DAD187E01E
:1004D00090E00BD27C0104E020E330E041E350E007
:1004E00062E370E0CED187E090E0FFD16C0105E0DF
:1004F00020E330E041E350E062E370E0C2D187E006
:1005000090E0F3D15C0106E020E330E041E350E00D
:1005100062E370E0B6D183E190E05BD14C010981E8
:100520001A819101A201B3018DD0789480917E004F
:100530008823E1F310927E00C4013FD1182F8C3044
:10054000A8F78B819C815BDEE12FF0E0EC30F105B8
:1005500068F7ED5EFF4F099420E040E066E670E04A
:100560008B819C81E1DEE2CF20E040E068E670E034
:100570008B819C81D9DEDACF20E040E06AE670E032
:100580008B819C81D1DED2CF20E040E06CE670E030
:100590008B819C81C9DECACF20E040E06EE670E02E
:1005A0008B819C81C1DEC2CF20E040E060E770E03B
:1005B0008B819C81B9DEBACF20E040E062E770E039
:1005C0008B819C81B1DEB2CF20E040E064E770E037
:1005D0008B819C81A9DEAACF20E040E066E770E035
:1005E0008B819C81A1DEA2CF20E040E068E770E033
:1005F0008B819C8199DE9ACF20E040E06AE770E031
:100600008B819C8191DE92CF20E040E06CE770E02E
:100610008B819C8189DE8ACF0F931F93CF938C01AE
:10062000C0E0C43058F4EC2FF0E0EE0FFF1FE00FF5
:10063000F11F80819181FFD0CF5FF3CFCF911F91C8
:100640000F910895AF92BF92CF92DF92EF92FF92F7
:100650000F931F93CF93DF93EC01798368835B83C0
:100660004A833D832C831F830E83F986E886DB86CD
:10067000CA86BD86AC861E861F86188A8CE0898B4A
:100680008A8B10E0143058F4E12FF0E0EE0FFF1FDA
:10069000EC0FFD1F80819181BBD01F5FF3CFCE0196
:1006A000BBDF10E0133060F4E12FF0E03496EE0F82
:1006B000FF1FEC0FFD1F80819181BDD01F5FF2CF26
:1006C000DF91CF911F910F91FF90EF90DF90CF902E
:1006D000BF90AF900895FF920F931F93CF93DF9336
:1006E0008C01F62EC0E0C33070F4EC2FF0E03496AD
:1006F000EE0FFF1FE00FF11F80819181E6D0811185
:1007000004C0CF5FF0CF80E002C0DC2F81E08823FF
:1007100029F08F2D880F8F0D8D0F01C08CE0DF9198
:10072000CF911F910F91FF9008951F93CF93DF9367
:10073000EC0110E01430A0F4E12FF0E0EE0FFF1F09
:10074000EC0FFD1F8081918188D0612FCE01C3DF26
:10075000898BCE0161DF89898C3010F01F5FEACF71
:1007600099899C3088F48889811120C02A89921344
:1007700008C09E859F5F9E879630D8F081E0888B69
:1007800018C09A8B1E8615C08889882391F08E85A3
:10079000863070F08F85863028F01E861F86188A76
:1007A00080E007C08F5F8F8780E003C080E001C0DA
:1007B00080E0DF91CF911F910895CF93DF93EC01FB
:1007C000B4DF882311F08A8901C08CE0DF91CF91DA
:1007D0000895CF93DF93EC01CE0191D00097E1F320
:1007E000DF91CF910895DC011296ED91FC91139762
:1007F000408121E030E0B90116960C9002C0660FEE
:10080000771F0A94E2F7CB018095842380830895B3
:10081000DC011296ED91FC911397408121E030E0CC
:10082000C90116960C9002C0880F991F0A94E2F72E
:10083000842B80830895DC01ED91FC911197408118
:1008400021E030E0C90116960C9002C0880F991F74
:100850000A94E2F7842B80830895DC01ED91FC91EA
:100860001197408121E030E0B90116960C9002C04A
:10087000660F771F0A94E2F7CB018095842380836B
:1008800008950F93CF93DF93EC01798368835B83A3
:100890004A833D832C830E83A6DFCE01DEDFDF910A
:1008A000CF910F910895DC011496ED91FC9115976D
:1008B000208130E0F90116960C9002C0F595E7957D
:1008C0000A94E2F7CF0181700895FC01A481B581FB
:1008D0009C91892F90E0068002C0959587950A9497
:1008E000E2F721E0822781700895CF93DF93EC0136
:1008F000CE0105D00097E1F3DF91CF9108950F93DA
:100900001F93CF93DF938230910510F482E090E043
:10091000E0918100F091820020E030E0A0E0B0E0C2
:10092000309719F14081518102811381481759078D
:10093000C8F08417950769F4109731F012960C935C
:10094000129713961C9327C0009381001093820086
:1009500022C02115310519F04217530718F49A01E6
:10096000BD01EF01DF01F801DBCF21153105F9F001
:10097000281B390B2430310580F48A819B81611555
:10098000710521F0FB019383828304C09093820060
:1009900080938100FE01329644C0FE01E20FF31FF6
:1009A0008193919322503109398328833AC0209151
:1009B0007F0030918000232B41F420916200309120
:1009C00063003093800020937F002091600030917D
:1009D00061002115310541F42DB73EB74091640007
:1009E00050916500241B350BE0917F00F091800051
:1009F000E217F307A0F42E1B3F0B2817390778F0F6
:100A0000AC014E5F5F4F2417350748F04E0F5F1F54
:100A10005093800040937F008193919302C0E0E067
:100A2000F0E0CF01DF91CF911F910F910895CF9307
:100A3000DF93009709F481C0FC0132971382128280
:100A4000A0918100B0918200109781F420813181C2
:100A5000820F931F20917F00309180002817390763
:100A600051F5F0938000E0937F0067C0ED0120E036
:100A700030E0CE17DF0740F44A815B819E014115CB
:100A80005105F1F0EA01F5CFD383C2834081518152
:100A9000840F951FC817D90759F488819981840F4D
:100AA000951F0296918380838A819B8193838283A1
:100AB0002115310529F4F0938200E09381003DC0B7
:100AC000E901FB83EA8349915991C40FD51FEC17C3
:100AD000FD0761F480819181840F951F0296E901E1
:100AE00099838883828193819B838A83E0E0F0E00D
:100AF00012968D919C911397009719F0FD01DC01DE
:100B0000F7CF8D919C9111979D012E5F3F4F820FE2
:100B1000931F20917F00309180002817390769F4D6
:100B2000309729F4109282001092810002C0138243
:100B30001282B0938000A0937F00DF91CF9108953F
:040B4000F894FFCF57
:100B44000000830020003000310032003300340004
:0E0B5400350036003700380039002A00230033
:00000001FF
