:1000000013C037C036C035C034C033C032C031C071
:1000100030C0E5C02EC02DC02CC02BC02AC029C0C6
:1000200028C071C026C02D0111241FBECFE5D4E029
:10003000DEBFCDBF10E0A0E6B0E0E0E8F8E002C02F
:1000400005900D92A037B107D9F720E0A0E7B0E006
:1000500001C01D92AC37B207E1F710E0C4E1D0E077
:1000600003C02197FE01E3D2C331D107D1F772D08B
:1000700005C4C6CFCF92DF92EF92FF920F93CF933A
:10008000DF930197C1F56F3F7F4FA9F580E190E0C5
:1000900096D2EC0140E052E16AE770E0C3D1D09320
:1000A0007700C093760080E190E025D1EC0160916B
:1000B0007600709177000F2EF0E5CF2EF3ECDF2E57
:1000C000E12CF12CF02D01E021E041E0D8D0D093DB
:1000D0007500C093740080E190E00DD1EC01609157
:1000E00076007091770000E021E041E0C8D0D09325
:1000F0007300C0937200DF91CF910F91FF90EF904A
:10010000DF90CF9008951F920F920FB60F92112497
:100110002F933F934F935F936F937F938F939F930F
:10012000AF93BF93EF93FF93809176009091770008
:10013000C2D1FF91EF91BF91AF919F918F917F912C
:100140006F915F914F913F912F910F900FBE0F9044
:100150001F90189583B7856083BF89B7816089BF79
:100160006091740070917500809176009091770095
:1001700061D16091720070917300809176009091CE
:10018000770058D17894FFCF0F931F93CF93DF93CD
:10019000FC0127852130F1F0172F062FEC0181E0BB
:1001A000878786874387CF01B0D08B8590E045D283
:1001B0009A878987892BC9F3A02FB12F80E09B856F
:1001C000891740F4E985FA85E80FF11D9D91908328
:1001D0008F5FF5CFDF91CF911F910F9108951F92FF
:1001E0000F920FB60F9211242F933F934F935F936B
:1001F0006F937F938F939F93AF93BF93EF93FF93EF
:10020000809176009091770070D1909170008091EC
:100210007100981751F08093700041E060E770E042
:100220008091720090917300AFDF61E770E0809180
:1002300074009091750054D0FF91EF91BF91AF91F0
:100240009F918F917F916F915F914F913F912F91EE
:100250000F900FBE0F901F9018956FEF7FEF81E00A
:1002600090E008DF0895FC016581768187819085A3
:100270000895FC018785813009F017860895CF9293
:10028000DF92EF92FF920F931F93FC018AE690E0BA
:10029000918380837383628350E0440F551F440F22
:1002A000551F440F551F30E0220F331F220F331FFD
:1002B00010E0000F111F4064242B022B0483C58221
:1002C000D682E782F0861286118688EF85871686A9
:1002D00017861F910F91FF90EF90DF90CF900895B8
:1002E000FC018785813031F081E0878782E0868755
:1002F000728761870895CF93DF93EC01CE019DD182
:100300000097E1F3DF91CF910895FC0114860895E1
:10031000CF93DF93EC018D85883149F0883239F035
:100320008830F1F46C818A819B8116D119C08C854B
:100330009B85891760F4E985FA85E80FF11D6081D6
:100340008A819B8109D18C858F5F8C8709C08A81C6
:100350009B810ED11E8689859A8507D282E08F8780
:10036000DF91CF9108950F931F93CF93DF93EC010B
:100370008D85803479F018F4883031F020C08035D4
:1003800069F08835B1F01BC06C8161608A819B8106
:10039000E3D015C08A819B81E3D011C009851A85FD
:1003A0008A819B81E3D0F80180838A819B81DBD0A5
:1003B00006C08A819B81DCD01E8682E08F87DF9118
:1003C000CF911F910F910895CF93DF93EC016D872B
:1003D0006033A9F028F4662391F06032B1F40FC0C5
:1003E000683469F0683FD9F0683379F48A819B8179
:1003F000BFD0CE018ADF8A819B8174D010C083E098
:100400008F878A819B81D2D00AC08E85813019F472
:10041000CE017EDF04C0823011F4CE01A4DFDF9173
:10042000CF910895FC0140835183628373831686C4
:1004300017860895DC011E969C911E97933060F4F8
:10044000E92FF0E03496EE0FFF1FEA0FFB1F7183D8
:1004500060839F5F1E969C930895CF92DF92EF92E8
:10046000FF92CF93DF93EC016A017B018C819D8128
:10047000AE81BF8184179507A607B707A9F06881E9
:1004800079818A819B81A7019601AFD0DA01C901E8
:100490004097A109B109B695A7959795879580B919
:1004A000CC82DD82EE82FF82DF91CF91FF90EF90D0
:1004B000DF90CF900895DC011F969C911F97E92F44
:1004C000F0E03496EE0FFF1FEA0FFB1F8081918151
:1004D000DC01ED91FC910480F581E02D61B1687F34
:1004E0000995089585EA86BF0895CF93DF9306B6F0
:1004F00000FC2FC0EC01EF85F0E03496EE0FFF1FFB
:10050000E80FF91F80819181DC01ED91FC9102805F
:10051000F381E02D09958130B9F4EF85F0E0349650
:10052000EE0FFF1FEC0FFD1F80819181DC01ED912B
:10053000FC910190F081E02D0995AB01BC01CE0149
:100540008CDFCE01CFDF05C08F858F5F6E8541D0F8
:100550009F87DF91CF91089563B985E886BF08959D
:1005600085EC86BF089585E886BF089583B1089518
:10057000CF93DF93EC0184E986BFEF85F0E03496FA
:10058000EE0FFF1FEC0FFD1F80819181DC01ED91CB
:10059000FC910480F581E02D68EF09958F858F5FD0
:1005A0006E8517D09F87DF91CF910895FC0184E17C
:1005B00086BF87858F5F66850CD097870895CF9318
:1005C000DF93EC01CE0139D00097E1F3DF91CF91B9
:1005D0000895991B79E004C0991F961708F0961B9F
:1005E000881F7A95C9F780950895A1E21A2EAA1B53
:1005F000BB1BFD010DC0AA1FBB1FEE1FFF1FA217D3
:10060000B307E407F50720F0A21BB30BE40BF50BCF
:10061000661F771F881F991F1A9469F76095709558
:10062000809590959B01AC01BD01CF010895EE0F1F
:10063000FF1F0590F491E02D09940F931F93CF9322
:10064000DF938230910510F482E090E0E0917A002F
:10065000F0917B0020E030E0A0E0B0E0309719F1AD
:10066000408151810281138148175907C8F08417CE
:10067000950769F4109731F012960C931297139620
:100680001C9327C000937A0010937B0022C0211591
:10069000310519F04217530718F49A01BD01EF0113
:1006A000DF01F801DBCF21153105F9F0281B390BEB
:1006B0002430310580F48A819B816115710521F018
:1006C000FB019383828304C090937B0080937A0024
:1006D000FE01329644C0FE01E20FF31F8193919315
:1006E00022503109398328833AC020917800309113
:1006F0007900232B41F42091620030916300309304
:1007000079002093780020916000309161002115DC
:10071000310541F42DB73EB740916400509165001A
:10072000241B350BE0917800F0917900E217F30774
:10073000A0F42E1B3F0B2817390778F0AC014E5F51
:100740005F4F2417350748F04E0F5F1F5093790015
:10075000409378008193919302C0E0E0F0E0CF01F4
:10076000DF91CF911F910F910895CF93DF93009761
:1007700009F481C0FC01329713821282A0917A00A1
:10078000B0917B00109781F420813181820F931FFB
:1007900020917800309179002817390751F5F093AE
:1007A0007900E093780067C0ED0120E030E0CE17DB
:1007B000DF0740F44A815B819E0141155105F1F04C
:1007C000EA01F5CFD383C28340815181840F951F05
:1007D000C817D90759F488819981840F951F02960B
:1007E000918380838A819B81938382832115310544
:1007F00029F4F0937B00E0937A003DC0E901FB838C
:10080000EA8349915991C40FD51FEC17FD0761F494
:1008100080819181840F951F0296E90199838883D5
:10082000828193819B838A83E0E0F0E012968D9130
:100830009C911397009719F0FD01DC01F7CF8D9182
:100840009C9111979D012E5F3F4F820F931F209126
:100850007800309179002817390769F4309729F426
:1008600010927B0010927A0002C013821282B09321
:100870007900A0937800DF91CF910895F894FFCF8D
:1008800000007C0020000000000033013901E40179
:00000001FF
