S018000041543234433235365F4578616D706C652E7372656306
S113000054C078C077C076C075C074C073C072C065
S113001071C03CC46FC06EC06DC06CC06BC06AC0A0
S113002069C00DC467C007634236B79BD8A71A39A5
S1130030685618AEBAAB558C1D3CB7CC5763BD6D32
S1130040EDFD753EF6177231BF000000803F0800D9
S11300500000BE922449123EABAAAA2ABECDCCCC43
S11300604C3E00000080BEABAAAAAA3E00000000DD
S1130070BF000000803F0000000000084178D3BBAF
S11300804387D1133D190E3CC3BD4282AD2B3E685C
S1130090EC8276BED98FE1A93E4C80EFFFBE01C44D
S11300A0FF7F3F0000000000AD0511241FBECFE517
S11300B0D4E0DEBFCDBF10E0A0E6B0E0E8EBFAE1AB
S11300C002C005900D92A638B107D9F720E0A6E842
S11300D0B0E001C01D92AC3AB207E1F710E0C5E50B
S11300E0D0E003C02197FE018BDBC435D107D1F7E3
S11300F0F3D4E0CC85CFFC0165817681878190853E
S11301000895FC018489813009F0148A0895CF92FE
S1130110DF92EF92FF920F931F93FC018DE690E024
S1130120918380837383628350E0440F551F440F8F
S1130130551F440F551F30E0220F331F220F331F6A
S113014010E0000F111F406A242B022B0483C58288
S1130150D682E782F08688EF828B138A148A1F91F5
S11301600F91FF90EF90DF90CF900895CF93DF939E
S1130170EC01CE014BDB0097E1F3DF91CF910895C1
S113018022E0FC012587118A0895FC01218532852E
S11301908089A901480F511DCA018130904810F08F
S11301A02195208B0895CF93DF93EC018A898831C0
S11301B049F0883239F0883081F56C818A819B81DD
S11301C002D72BC08D85882379F02B853C85E82FB9
S11301D0F0E03197E20FF31F60818A819B81F3D6AF
S11301E08D8581508D8719C089899889891760F414
S11301F0EE85FF85E80FF11D60818A819B81E3D63E
S113020089898F5F898B09C08A819B81E8D61B8A83
S11302108E859F8593DB82E08C8BDF91CF9108954F
S11302200F931F93CF93DF93EC018A898832B1F047
S113023038F4803149F1883189F0883051F059C05F
S1130240803541F1883509F442C0803409F051C049
S11302502EC06C818A819B81B6D64BC08D85882344
S113026079F02B853C85E82FF0E03197E20FF31FFE
S113027060818A819B81A7D68D8581508D8739C005
S11302808A819B8166D635C06C8161608A819B813D
S11302909AD62FC00E851F858989080F111D8A8162
S11302A09B819BD6F801808389898F5F898B2989FB
S11302B030E0888990E001972817390724F48A816F
S11302C09B8185D616C08A819B8184D612C00E85F7
S11302D01F858989080F111D8A819B817ED6F801AB
S11302E080831F861E868A819B8179D61B8A82E041
S11302F08C8BDF91CF911F910F910895CF93DF9352
S1130300EC016A8B6033A9F028F4662391F0603223
S1130310B1F40FC0683469F0683FD9F0683379F4F8
S11303208A819B815CD6CE012BDF8A819B8111D689
S113033010C083E08C8B8A819B816FD60AC08B8925
S1130340813019F4CE012FDF04C0823011F4CE01C4
S113035067DFDF91CF910895FC01848195812BD4CF
S11303600895FC018481958138D40895FF920F93F8
S11303701F93CF93DF93EC01F12C83E08F1590F062
S11303800F2D10E00D5F1F4F000F111F0C0F1D1FCD
S1130390F801808191810FD4F80180819181E3D3A8
S11303A0F394EBCF8A819B8106D48881998115D4FB
S11303B0CE01D2DF8C859D8536D4182FCE01D1DFB6
S11303C0CE01CADFCE01CDDF1111F2CFF12CF3E063
S11303D0FF1590F00F2D10E00D5F1F4F000F111F40
S11303E00C0F1D1FF80180819181D2D3F801808107
S11303F09181F3D3F394EBCF8A819B81EED3DF9188
S1130400CF911F910F91FF900895EF92FF920F9358
S11304101F93CF93DF93EC01E62E142FA7DF113047
S113042021F488819981D9D305C0111103C0888131
S11304309981C1D30E2D10E0159507951595079553
S11304401595079515950795F12C81E08F1558F1B1
S1130450CE0182DF10E0143008F5812F90E0202FC8
S113046030E0012E02C0359527950A94E2F720FF6B
S11304700AC0FC013396EE0FFF1FEC0FFD1F8081B5
S1130480918199D309C0FC013396EE0FFF1FEC0F45
S1130490FD1F80819181A1D31F5FDDCFCE0161DF7C
S11304A0F3940E2DD2CFDF91CF911F910F91FF9036
S11304B0EF900895423020F04170FC012685620FD0
S11304C0F0E44F9F600D1124606841E09EDF0895C1
S11304D041E06CE09ADF089541E068E096DF08951A
S11304E041E061E092DF08956F927F928F92AF9224
S11304F0BF92CF92DF92EF92FF920F931F93CF930D
S1130500DF93CDB7DEB73C01CB01F301868671835F
S11305106083538342833583248317830683F18660
S1130520E086D386C286B586A48632D3F30182815F
S113053093812ED3F301848195812AD3F30182819F
S113054093814BD3F12CF3E0FF1590F00F2D10E0C5
S11305500D5F1F4F000F111F060D171DF80180813D
S1130560918116D3F8018081918137D3F394EBCF35
S1130570F301868197811FD3F301808591851BD375
S113058010E0123090F4C301E7DE8FE99FE0019799
S1130590F1F700C00000C301E4DEEFE9FFE03197AA
S11305A0F1F700C000001F5FECCFF3018681978153
S11305B014D3C301D1DE8FE99FE00197F1F700C0A6
S11305C00000C301CEDEEFE9FFE03197F1F700C090
S11305D0000041E068E2C30118DFC3017DDFC3010D
S11305E07FDF41E066E0C30110DFC30171DFDF910B
S11305F0CF911F910F91FF90EF90DF90CF90BF901C
S1130600AF908F907F906F9008950F931F93CF9327
S1130610DF938C01EB01642F422F4CDF688166234A
S113062029F0219640E0C801F0DEF8CFDF91CF91A8
S11306301F910F910895CF93DF93EC01CE01E6D87B
S11306400097E1F3DF91CF9108958F92AF92BF921B
S1130650CF92DF92EF92FF920F931F93CF93DF938A
S1130660019709F0E0C06F3F7F4F09F0DCC087E0DD
S113067090E0EBD2EC0100E026E330E047E350E009
S113068068E370E0BED2D093A700C093A60087E0D1
S113069090E0DBD2EC0101E026E330E047E350E0F8
S11306A068E370E0AED2D093A500C093A40087E0C5
S11306B090E0CBD2EC0102E026E330E047E350E0E7
S11306C068E370E09ED2D093A300C093A20087E0B9
S11306D090E0BBD2EC0103E026E330E047E350E0D6
S11306E068E370E08ED2D093A100C093A00087E0AD
S11306F090E0ABD2EC0104E026E330E047E350E0C5
S113070068E370E07ED2D0939F00C0939E0087E0A0
S113071090E09BD2EC0105E026E330E047E350E0B3
S113072068E370E06ED2D0939D00C0939C0087E094
S113073090E08BD2EC0106E026E330E047E350E0A2
S113074068E370E05ED2D0939B00C0939A008FE080
S113075090E071DFEC01A0909A00B0909B00C090F3
S11307609C00D0909D00E0909E00F0909F0000912E
S1130770A0001091A1002091A2003091A30040910B
S1130780A4005091A5006091A6007091A700689400
S1130790882484F8A9DED0939900C093980080E15E
S11307A090E044D4EC0140E052E16AE770E071D398
S11307B0D0939700C093960085E190E0D7DCEC01DC
S11307C060919600709197000F2EF0E5CF2EF3EC18
S11307D0DF2EE12CF12CF02D01E021E041E097DC4B
S11307E0D0939500C093940085E190E0BFDCEC01C8
S11307F0609196007091970021E040E088DCD093EE
S11308009300C093920085E190E0B0DCEC0160912C
S113081096007091970000E020E040E078DCD093EF
S11308209100C0939000DF91CF911F910F91FF90A1
S1130830EF90DF90CF90BF90AF908F9008951F926C
S11308400F920FB60F9211242F933F934F935F9300
S11308506F937F938F939F93AF93BF93EF93FF9384
S113086080919600909197005DD3FF91EF91BF9195
S1130870AF919F918F917F916F915F914F913F9134
S11308802F910F900FBE0F901F9018951F920F92EB
S11308900FB60F9211242F933F934F935F936F934F
S11308A07F938F939F93AF93BF93EF93FF93809125
S11308B096009091970050D380916800882371F13D
S11308C08091940090919500DC01ED91FC9102805F
S11308D0F381E02D09958230A1F4109268006091B3
S11308E08E0070918F0080E090E03FD440E0B7D15B
S11308F020E040E0BC01809198009091990085DE51
S11309000DC0833059F41092680020E040E063E7A2
S113091070E0809198009091990077DE8091670053
S1130920882379F18091920090919300DC01ED91FC
S1130930FC910280F381E02D09958230A9F4109294
S1130940670060918A0070918B0080918C00909177
S11309508D0045E084D121E040E0BC018091980005
S11309609091990052DE0DC0833059F410926700C3
S113097021E040E068E770E0809198009091990050
S113098044DE80916600882381F1809190009091EB
S11309909100DC01ED91FC910280F381E02D099539
S11309A08230B1F4109266006091860070918700E5
S11309B08091880090918900DAD340E050D120E002
S11309C04AE0BC0180919800909199001EDE0DC010
S11309D0833059F41092660020E04AE06DE770E03D
S11309E0809198009091990010DEFF91EF91BF9152
S11309F0AF919F918F917F916F915F914F913F91B3
S1130A002F910F900FBE0F901F9018950F931F9367
S1130A10CF93DF937723BCF0FC013489313099F014
S1130A208A01EC0181E0848B82E0838B7287618789
S1130A30CF01099694878387208BCF01A1DBCE0158
S1130A40A4DB1F870E87DF91CF911F910F9108952B
S1130A500F931F93CF93DF937723BCF0FC0134896A
S1130A60313099F08A01EC0181E0848B82E0838B40
S1130A7072876187CF01099694878387208BCF0182
S1130A807FDBCE0182DB1F870E87DF91CF911F9121
S1130A900F9108950F931F93CF93DF937723BCF0A7
S1130AA0FC013489313099F08A01EC0181E0848BB6
S1130AB082E0838B72876187CF010996948783874D
S1130AC0208BCF015DDBCE0160DB1F870E87DF91BA
S1130AD0CF911F910F91089583B7856083BF89B724
S1130AE0816089BF789460919400709195008091A1
S1130AF0960090919700D5D16091920070919300E7
S1130B008091960090919700CCD160919000709163
S1130B1091008091960090919700C3D122E04EE815
S1130B2050E060E070E080919400909195006EDF59
S1130B3024E04AE850E062E370E0809192009091F2
S1130B40930086DF24E046E850E066ED7FE1809183
S1130B509000909191009EDFFFCF6FEF7FEF81E0D7
S1130B6090E073DD0895DC011296ED91FC911397EA
S1130B70408121E030E0B90116960C9002C0660F66
S1130B80771F0A94E2F7CB0180958423808308952C
S1130B90DC011296ED91FC911397408121E030E045
S1130BA0C90116960C9002C0880F991F0A94E2F7A7
S1130BB0842B80830895DC01ED91FC911197408191
S1130BC021E030E0C90116960C9002C0880F991FED
S1130BD00A94E2F7842B80830895DC01ED91FC9163
S1130BE01197408121E030E0B90116960C9002C0C3
S1130BF0660F771F0A94E2F7CB01809584238083E4
S1130C0008950F93CF93DF93EC01798368835B831B
S1130C104A833D832C830E83A6DFCE01DEDFDF9182
S1130C20CF910F910895DC011496ED91FC911597E5
S1130C30208130E0F90116960C9002C0F595E795F5
S1130C400A94E2F7CF0181700895CF93DF93EC010A
S1130C50CE01DCD50097E1F3DF91CF9108952F9277
S1130C603F924F925F926F927F928F929F92AF9238
S1130C70BF92CF92DF92EF92FF920F931F93CF9385
S1130C80DF9300D000D000D0CDB7DEB72B013C01FC
S1130C90942E2DB63EB69F776B837C838D839E8383
S1130CA038D2A62EB72EC82ED92E262F372F482F4E
S1130CB0592F812C01C08F2CCA01B9012AE030E0E0
S1130CC040E050E07BD5FF24F394F80C2115310566
S1130CD04105510581F7992021F083948394890C6F
S1130CE001C08F2C20E030E0A901C301B2010DD274
S1130CF088230CF4839483948F2D90E00196ADB7F0
S1130D00BEB7A81BB90B0FB6F894BEBF0FBEADBFDC
S1130D102DB73EB72F5F3F4F3A8329838901EE24D5
S1130D20E394FE14B8F06A2D7B2D8C2D9D2D2AE0C2
S1130D3030E040E050E042D5A22EB32EC42ED52E92
S1130D40EF2DF0E0EE19F109E00FF11F605D608313
S1130D50E394E7CFE981FA81EF0DF11D1082E82CCD
S1130D60F12CC70153D58C01892BC9F320E030E065
S1130D70A901C301B201C9D188235CF4A70162E8C7
S1130D8070E0C80183D6A70169817A81C8015FD662
S1130D9005C0A70169817A81C80178D6992009F430
S1130DA059C0A70164E870E0C80151D66A2D7B2DB3
S1130DB08C2D9D2DDAD19B01AC016B817C818D81C1
S1130DC09E813ED12B013C01692D70E080E090E0D2
S1130DD0CCD19B01AC0160E070E080E291E4DAD216
S1130DE025D397D1C2D19B01AC01C301B2016FD20B
S1130DF01DD38FD19B01AC01892D90E001966DB775
S1130E007EB7681B790B0FB6F8947EBF0FBE6DBF1B
S1130E108DB79EB701965C016C0188248394981465
S1130E2088F0CA01B9012AE030E040E050E0C6D4BD
S1130E30E92DF0E0E819F109EC0DFD1D605D60831A
S1130E408394EDCFF501E90DF11D1082A701B501E1
S1130E50C801FDD5C8010FB6F8943EBE0FBE2DBE25
S1130E6026960FB6F894DEBF0FBECDBFDF91CF91AB
S1130E701F910F91FF90EF90DF90CF90BF90AF90B4
S1130E809F908F907F906F905F904F903F902F90A6
S1130E900895FC0140835183628373831686178609
S1130EA00895DC011E969C911E97933060F4E92FFF
S1130EB0F0E03496EE0FFF1FEA0FFB1F718360838F
S1130EC09F5F1E969C930895CF92DF92EF92FF92BC
S1130ED0CF93DF93EC016A017B018C819D81AE810C
S1130EE0BF8184179507A607B707A9F068817981A0
S1130EF08A819B81A701960161D4DA01C9014097D7
S1130F00A109B109B695A7959795879580B9CC8223
S1130F10DD82EE82FF82DF91CF91FF90EF90DF9030
S1130F20CF900895DC011F969C911F97E92FF0E064
S1130F303496EE0FFF1FEA0FFB1F80819181DC01C5
S1130F40ED91FC910480F581E02D61B1687F0995F4
S1130F50089585EA86BF0895CF93DF9306B600FC13
S1130F602FC0EC01EF85F0E03496EE0FFF1FE80F81
S1130F70F91F80819181DC01ED91FC910280F38164
S1130F80E02D09958130B9F4EF85F0E03496EE0F49
S1130F90FF1FEC0FFD1F80819181DC01ED91FC911D
S1130FA00190F081E02D0995AB01BC01CE018CDFED
S1130FB0CE01CFDF05C08F858F5F6E85F3D39F870A
S1130FC0DF91CF91089563B985E886BF089585ECD4
S1130FD086BF089585E886BF089583B10895CF93A9
S1130FE0DF93EC0184E986BFEF85F0E03496EE0FE1
S1130FF0FF1FEC0FFD1F80819181DC01ED91FC91BD
S11310000480F581E02D68EF09958F858F5F6E85EB
S1131010C9D39F87DF91CF910895FC0184E186BFF6
S113102087858F5F6685BED397870895CF93DF93B7
S1131030EC01CE01EBD30097E1F3DF91CF9108955A
S11310405058BB27AA270ED008C1F9D030F0FED0E3
S113105020F031F49F3F11F41EF4EEC00EF4E0953D
S1131060E7FBE4C0E92F0AD180F3BA1762077307DC
S11310708407950718F071F49EF522C10EF4E095EB
S11310800B2EBA2FA02D0B01B90190010C01CA013E
S1131090A0011124FF27591B99F0593F50F4503EE9
S11310A068F11A16F040A22F232F342F4427585FDB
S11310B0F3CF469537952795A795F0405395C9F7F3
S11310C07EF41F16BA0B620B730B840BBAF09150AB
S11310D0A1F0FF0FBB1F661F771F881FC2F70EC04A
S11310E0BA0F621F731F841F48F48795779567951D
S11310F0B795F7959E3F08F0B3CF9395880F08F006
S11311009927EE0F9795879508956CD008F481E0A0
S11311100895BCD088F09F5790F0B92F9927B75104
S1131120A0F0D1F0660F771F881F991F1AF0BA95A7
S1131130C9F712C0B13081F0C3D0B1E00895C0C086
S1131140672F782F8827B85F39F0B93FCCF386959D
S113115077956795B395D9F73EF4909580957095FA
S113116061957F4F8F4F9F4F0895E89409C097FB77
S11311703EF490958095709561957F4F8F4F9F4F6A
S11311809923A9F0F92F96E9BB279395F6958795AE
S113119077956795B795F111F8CFFAF4BB0F11F471
S11311A060FF1BC06F5F7F4F8F4F9F4F16C0882318
S11311B011F096E911C0772321F09EE8872F762F4E
S11311C005C0662371F096E8862F70E060E02AF08F
S11311D09A95660F771F881FDAF7880F969587957B
S11311E097F90895990F0008550FAA0BE0E8FEEF50
S11311F016161706E807F907C0F012161306E407D7
S1131200F50798F0621B730B840B950B39F40A26CF
S113121061F0232B242B252B21F408950A2609F4AD
S1131220A140A6958FEF811D811D089597F99F67B1
S113123080E870E060E008959FEF80EC089500245A
S11312400A941616170618060906089500240A9427
S113125012161306140605060895092E0394000CAD
S113126011F4882352F0BB0F40F4BF2B11F460FF3C
S113127004C06F5F7F4F8F4F9F4F089557FD905865
S1131280440F551F59F05F3F71F04795880F97FB46
S1131290991F61F09F3F79F0879508951216130600
S11312A01406551FF2CF4695F1DF08C0161617062F
S11312B01806991FF1CF8695710561050894089564
S11312C0E894BB2766277727CB0197F908950BD0BD
S11312D0C4CFB5DF28F0BADF18F0952309F0A6CF04
S11312E0ABCF1124EECFCADFA0F3959FD1F3950FB6
S11312F050E0551F629FF001729FBB27F00DB11D96
S1131300639FAA27F00DB11DAA1F649F6627B00D25
S1131310A11D661F829F2227B00DA11D621F739F0E
S1131320B00DA11D621F839FA00D611D221F749F1C
S11313303327A00D611D231F849F600D211D822F63
S1131340762F6A2F11249F5750408AF0E1F08823AA
S11313504AF0EE0FFF1FBB1F661F771F881F9150B7
S11313605040A9F79E3F510570F060CFAACF5F3F70
S1131370ECF3983EDCF3869577956795B795F795EA
S1131380E7959F5FC1F7FE2B880F911D9695879572
S113139097F90895FA01EE0FFF1F309621053105E4
S11313A099F16115710561F48038BFE39B0749F138
S11313B068949038810561F08038BFEF9B0741F055
S11313C0992342F5FF3FE1053105210511F1E89428
S11313D00894E795D901AA2329F4AB2FBE2FF85F0F
S11313E0D0F310C0FF5F70F4A695E0F7F73950F022
S11313F019F0FF3A38F49F779F930CD00F9007FCB5
S1131400905808953EF018CF60E070E080E89FE3C4
S113141008954FE79F775F934F933F932F93E7D0C0
S11314202F913F914F915F9152DF25C02FDFE0F064
S11314309E37D8F09639B8F49E3848F4672F782F41
S11314408827985FF9CF8695779567959395953911
S1131450D0F3B62FB1706B0F711D811D20F48795E9
S113146077956795939533C04DC02BCF19F40EF043
S1131470DDCE26CFE1CE0ADFC8F39638C0F707F8F1
S11314800F92E8942BE33AEA48EB5FE72EDF0F92E2
S11314900F920F924DB75EB70F92E9D0E6E2F0E0FB
S11314A03FD04F915F91EF91FF91E595EE1FFF1FA4
S11314B049F0FE57E0684427EE0F441FFA95E1F720
S11314C04195550B5BD00F9007FE4FC008958823BC
S11314D071F4772321F09850872B762F07C0662369
S11314E011F499270DC09051862B70E060E02AF02A
S11314F09A95660F771F881FDAF7880F9695879558
S113150097F908959F3F31F0915020F4879577958E
S11315106795B795880F911D9695879597F90895C6
S1131520DF93CF931F930F93FF92EF92DF927B0190
S11315308C01689405C0DA2EEF01D5DEFE01E89433
S1131540A5912591359145915591AEF3EF018ADD31
S1131550FE019701A801DA9479F7DF90EF90FF90EC
S11315600F911F91CF91DF9108959B01AC0160E031
S113157070E080E89FE3AEC059CEC4CF87DEE8F3C5
S11315809923D9F3940F511DBBF39150504094F01B
S113159059F0882332F0660F771F881F915050400E
S11315A0C1F79E3F510544F7880F911D9695879585
S11315B097F908955F3FACF0983E9CF0BB27869561
S11315C077956795B79508F4B1609395C1F7BB0F0C
S11315D058F711F460FFE8CF6F5F7F4F8F4F9F4F35
S11315E0E3CF6FCE0EF08ECF27CE68941FCE4EDEA3
S11315F0C8F39923D1F3C6F3DF93CF931F930F93CB
S1131600FF92C92FDD2788232AF02197660F771FC1
S1131610881FDAF720E030E040E85FEB9FE3883989
S113162020F0803E30F021968F770BDDEEE4F0E081
S113163003C007DDEBE7F0E073DF8B01BE01EC01D3
S1131640FB2E6F5771097595771F880B990B8FDDEA
S113165028E132E741E35FE346DEAF2D9801AE01B6
S1131660FF900F911F91CF91DF91FCDCF6CDFA0131
S1131670DC01AA0FBB1F9B01AC01BF5728F4222732
S11316803327442750781FC0B75188F4AB2F002468
S1131690469537952795011CA395D2F3002069F050
S11316A0220F331F441FB395DAF30DD0C9CC613038
S11316B07105A0E88A07B94630F49B01AC0166279E
S11316C0772788279078309621F0208331834283CE
S11316D0538308950CD0C1CDB9DD40F0B0DD30F0B6
S11316E021F45F3F19F0A2CD5111EBCDA5CDC6DD9C
S11316F098F39923C9F35523B1F3951B550BBB27D5
S1131700AA2762177307840738F09F5F5F4F220F81
S1131710331F441FAA1FA9F333D00E2E3AF0E0E87A
S113172030D091505040E695001CCAF729D0FE2FC6
S113173027D0660F771F881FBB1F26173707480758
S1131740AB07B0E809F0BB0B802DBF01FF2793580E
S11317505F4F2AF09E3F510568F068CDB2CD5F3FE0
S1131760ECF3983EDCF3869577956795B795F795F6
S11317709F5FC9F7880F911D9695879597F90895EE
S1131780E1E0660F771F881FBB1F6217730784078A
S1131790BA0720F0621B730B840BBA0BEE1F88F799
S11317A0E0950895991B79E004C0991F961708F0F5
S11317B0961B881F7A95C9F780950895A1E21A2E81
S11317C0AA1BBB1BFD010DC0AA1FBB1FEE1FFF1FE1
S11317D0A217B307E407F50720F0A21BB30BE40B31
S11317E0F50B661F771F881F991F1A9469F7609578
S11317F07095809590959B01AC01BD01CF01089532
S1131800EE0FFF1F0590F491E02D09940F931F93A1
S1131810CF93DF938230910510F482E090E0E09161
S1131820AA00F091AB0020E030E0A0E0B0E03097F7
S113183019F1408151810281138148175907C8F079
S11318408417950769F4109731F012960C93129748
S113185013961C9327C00093AA001093AB0022C0D8
S11318602115310519F04217530718F49A01BD01E7
S1131870EF01DF01F801DBCF21153105F9F0281B59
S1131880390B2430310580F48A819B8161157105FF
S113189021F0FB019383828304C09093AB00809377
S11318A0AA00FE01329644C0FE01E20FF31F8193A9
S11318B0919322503109398328833AC02091A8009A
S11318C03091A900232B41F42091620030916300F0
S11318D03093A9002093A80020916000309161000A
S11318E02115310541F42DB73EB740916400509164
S11318F06500241B350BE091A800F091A900E217C4
S1131900F307A0F42E1B3F0B2817390778F0AC011E
S11319104E5F5F4F2417350748F04E0F5F1F5093FB
S1131920A9004093A8008193919302C0E0E0F0E005
S1131930CF01DF91CF911F910F910895CF93DF9342
S1131940009709F481C0FC01329713821282A0919E
S1131950AA00B091AB00109781F420813181820FED
S1131960931F2091A8003091A9002817390751F539
S1131970F093A900E093A80067C0ED0120E030E0F7
S1131980CE17DF0740F44A815B819E014115510562
S1131990F1F0EA01F5CFD383C28340815181840FF2
S11319A0951FC817D90759F488819981840F951F09
S11319B00296918380838A819B81938382832115FC
S11319C0310529F4F093AB00E093AA003DC0E9018E
S11319D0FB83EA8349915991C40FD51FEC17FD0786
S11319E061F480819181840F951F0296E9019983A6
S11319F08883828193819B838A83E0E0F0E012965E
S1131A008D919C911397009719F0FD01DC01F7CF9C
S1131A108D919C9111979D012E5F3F4F820F931FD3
S1131A202091A8003091A9002817390769F430974C
S1131A3029F41092AB001092AA0002C01382128201
S1131A40B093A900A093A800DF91CF910895DC0181
S1131A50FB014150504070F00D900020D1F71197D8
S1131A6004C001900D92002061F041505040C8F72D
S1131A701C92BF0101900020E9F7E61BF70BAE0FA3
S1131A80BF1F0894A80BB90BCD010895DC01FB011D
S1131A904150504058F049F001900D920020C1F798
S1131AA0E61BF70B3197CF0108951C92019000209B
S10B1AB0E9F7F6CFF894FFCF2B
S1131AB80000AC002000010101000000007B00814F
S1131AC8007E01657272310065727232006572724D
S1091AD833002D002E0076
S9030000FC
