S01700004D4350343932315F4578616D706C652E7372656332
S113000013C037C036C035C034C033C032C031C06D
S113001055C197C1BDC12DC02CC02BC02AC029C059
S113002028C027C026C00C0211241FBECFE5D4E08F
S1130030DEBFCDBF10E0A0E6B0E0E0E8FEE002C025
S113004005900D92AA37B107D9F720E0AAE7B0E0EE
S113005001C01D92A439B207E1F710E0C4E1D0E079
S113006003C02197FE01DDD4C331D107D1F7B7D145
S113007005C7C6CFFF920F931F93CF93DF938C01D5
S1130080F62EFC016083158216821782CF2DD0E0F4
S1130090CC0FDD1FCE01CBD4F8019283818300976E
S11300A0A9F3AE0160E070E0ABD6F801808190E086
S11300B0BED4F80194838383892BB9F3DF91CF9164
S11300C01F910F91FF900895FC0121813281878156
S11300D0E82FF0E0EE0FFF1FE20FF31F8081918104
S11300E00895FC018581882339F0838194812781D7
S11300F0FC01E20FF11D80810895CF93DF93EC01A1
S113010029813A818F81E82FF0E0EE0FFF1FE20F83
S1130110F31F8081918123D58F818F5F688175D48E
S11301209F838D8181508D83DF91CF910895CF93EB
S1130130DF93EC01CE017BD40097E1F3DF91CF9103
S113014008950F931F93CF93DF93019709F0B1C0E4
S11301506F3F7F4F09F0ADC087E090E00ED3EC0114
S113016005E026E330E047E350E068E370E0F3D2D3
S1130170D0938F00C0938E0087E090E0FED2EC0114
S113018003E026E330E047E350E068E370E0E3D2C5
S1130190D0938D00C0938C0087E090E0EED2EC0108
S11301A004E026E330E047E350E068E370E0D3D2B4
S11301B0D0938B00C0938A0087E090E0DED2EC01FC
S11301C002E026E330E047E350E068E370E0C3D2A6
S11301D0D0938900C093880087E090E0D8D2EC01E6
S11301E0009188001091890020918A0030918B0041
S11301F040918C0050918D0060918E0070918F0021
S1130200DED2D0938700C093860087E090E0B5D219
S1130210EC0100E026E330E047E350E068E370E0FF
S11302209AD2D0938500C093840087E090E0A5D251
S1130230EC0101E026E330E047E350E068E370E0DE
S11302408AD2D0938300C093820087E090E095D255
S1130250EC0102E026E330E047E350E068E370E0BD
S11302607AD2D0938100C093800088E090E032D1AC
S1130270EC0140918400509185006091820070915E
S1130280830025E0F6D0D0937F00C0937E0088E001
S113029090E020D1EC014091840050918500609160
S11302A080007091810025E0E4D0D0937D00C0935C
S11302B07C00DF91CF911F910F9108951F920F92AF
S11302C00FB60F9211242F933F934F935F936F9325
S11302D07F938F939F93AF93BF93EF93FF9360911B
S11302E07A0070917B006F5F7F4F70937B00609307
S11302F07A0080916600909167000197909367005F
S11303008093660080917E0090917F00AED16091D1
S113031066007091670080917C0090917D00A5D16A
S1130320FF91EF91BF91AF919F918F917F916F91C9
S11303305F914F913F912F910F900FBE0F901F909F
S113034018951F920F920FB60F9211242F933F937B
S11303504F935F936F937F938F939F93AF93BF93C9
S1130360EF93FF938091860090918700D3D2FF9101
S1130370EF91BF91AF919F918F917F916F915F9119
S11303804F913F912F910F900FBE0F901F90189592
S11303901F920F920FB60F9211242F933F934F93F6
S11303A05F936F937F938F939F93AF93BF93EF93D9
S11303B0FF93809186009091870081D2FF91EF9105
S11303C0BF91AF919F918F917F916F915F914F9169
S11303D03F912F910F900FBE0F901F90189583B7E8
S11303E0856083BF8EB583608EBD89B7856089BF04
S11303F060917E0070917F008091860090918700CB
S113040042D260917C0070917D0080918600909131
S1130410870039D27894FFCF6FEF7FEF81E090E0CF
S113042090DE089580E0089580E0089580E00895C6
S1130430FC018681978155DE0895FC0186819781B0
S113044043DE0895FC018281938171D10895CF9395
S1130450DF93EC018A819B8158D18C819D8167D186
S11304608C819D8152D18E819F8147DEDF91CF9116
S11304700895BF92CF92DF92EF92FF920F931F9352
S1130480CF93DF93EC017B018A01B22E8CE690E0DE
S11304909983888388E090E04ADE6C016B2DEADD65
S11304A0DF82CE82FB82EA82C7011CD18A819B81D2
S11304B02CD11D830C83C80115D18C819D8125D13C
S11304C0DF91CF911F910F91FF90EF90DF90CF902C
S11304D0BF900895CF93DF93EC01CE01A8D200978B
S11304E0E1F3DF91CF910895BF92CF92DF92EF9223
S11304F0FF920F931F93CF93DF938C017B01B42E54
S1130500D8011696CC911697D0E0CC0FDD1F11962A
S11305108D919C911297C80FD91FCB2CD12CC60159
S113052086D299838883F801868190E09C01220F0A
S1130530331F0180F281E02DE20FF31F208131810E
S1130540232BF1F2D80113962D913C911497F901C4
S1130550E80FF91FB0821696EC911697F0E0EE0FB3
S1130560FF1F11968D919C911297E80FF91FA60118
S1130570B701808191813BD4F80186818F5F6081CE
S113058044D2968385818F5F8583DF91CF911F91BC
S11305900F91FF90EF90DF90CF90BF900895EF926E
S11305A0FF920F931F93CF93DF93EC018B01E42E03
S11305B08E81811104C0888181508E8302C0815054
S11305C08E838E8190E09C01220F331FE981FA8192
S11305D0E20FF31F20813181232BD9F12B813C8140
S11305E0F901E80FF91FF080FE0C6F2D70E0EE8129
S11305F0F0E0EE0FFF1F89819A81E80FF91F8081D7
S1130600918136D3009789F3EE81F0E0EE0FFF1F5E
S113061029813A81E20FF31F918380834E2D50E0AC
S11306208E8190E0EB81FC81E80FF91F2081880F17
S1130630991FE981FA81E80FF91F80819181B8013E
S1130640820F911DD4D38E81EB81FC81E80FF11DC3
S1130650F0828E818F5F6881D8D19E83DF91CF91A4
S11306601F910F91FF90EF900895EF92FF920F93D7
S11306701F93CF93DF931F92CDB7DEB77C018B011D
S11306801F70812F8063898341E0BE016F5F7F4FBC
S1130690F7018681978128DF098341E0BE016F5FFE
S11306A07F4FF701868197817ADF0F90DF91CF9199
S11306B01F910F91FF90EF900895DC011296ED9138
S11306C0FC911397408121E030E0B90116960C901B
S11306D002C0660F771F0A94E2F7CB01809584234A
S11306E080830895DC011296ED91FC91139740816B
S11306F021E030E0C90116960C9002C0880F991FC2
S11307000A94E2F7842B80830895DC01ED91FC9137
S11307101197408121E030E0C90116960C9002C087
S1130720880F991F0A94E2F7842B80830895DC01D3
S1130730ED91FC911197408121E030E0B9011696CA
S11307400C9002C0660F771F0A94E2F7CB018095E4
S11307508423808308950F93CF93DF93EC017983EF
S113076068835B834A833D832C830E83A6DFCE019B
S1130770DEDFDF91CF910F910895CF93DF93EC01EA
S1130780CE0155D10097E1F3DF91CF910895CF9336
S1130790DF93EC01CE014BD10097E1F3DF91CF91D0
S11307A00895CF93DF93EC01CE0141D10097E1F39B
S11307B0DF91CF910895FC011282138208958F92E4
S11307C09F92AF92BF92CF92DF92EF92FF920F93DC
S11307D01F93CF93DF93EC016B017A015901480118
S11307E084E090E0DEDF8C01E6DF1A83098318825F
S11307F0C60178DFC6019BDFC70174DFC70197DF3D
S1130800C5015BDFC50181DFC4016CDFC4017DDF8D
S11308108DB1826D8DB9DF91CF911F910F91FF90B2
S1130820EF90DF90CF90BF90AF909F908F900895FE
S1130830EF92FF920F931F93CF93DF938C017B0171
S1130840FC01C381CF5FC383D0E0CC0FDD1FBE01A9
S1130850F801808191810CD20097C9F3F80191834A
S11308608083238130E021503048220F331FFC0164
S1130870E20FF31FF182E082DF91CF911F910F917C
S1130880FF90EF900895FC0181819281D1DF08955A
S1130890DC011296EC911297F0E0EE0FFF1F8D91A0
S11308A09C91E80FF91F808191810895FC01638177
S11308B0662321F082818F5FA8D092830895CF931D
S11308C0DF93FC01A381B481868191E0980F968324
S11308D0A80FB11D8FB18C9386819581891740F43F
S11308E00380F481E02DE80FF11D80818FB90FC0E2
S11308F0EF0181819281CCDFDC01ED91FC910484D4
S1130900F585E02D0995188289819A81CFDFDF91E1
S1130910CF910895CF93DF93DC012C91211172C004
S1130920EC0189819A81B4DFDC01ED91FC910680B0
S1130930F781E02D09958D83882309F460C08981AE
S11309409A81A6DFDC01ED91FC910084F185E02D14
S113095009959C838B831E8289819A8199DFDC01AE
S1130960ED91FC910480F581E02D0995811104C07D
S11309708DB18F7D8DB905C0813019F48DB1806240
S11309808DB989819A8184DFDC01ED91FC9102802B
S1130990F381E02D0995811104C08DB18B7F8DB950
S11309A005C0813019F48DB184608DB989819A8133
S11309B06FDFDC01ED91FC910190F081E02D099550
S11309C0811104C08DB1877F8DB905C0813019F4C0
S11309D08DB188608DB989819A815ADFDC01ED91EE
S11309E0FC910284F385E02D0995EB81FC818E81D5
S11309F0E80FF11D80818FB981E0888303C089816C
S1130A009A8154DFDF91CF910895991B79E004C056
S1130A10991F961708F0961B881F7A95C9F7809539
S1130A200895EE0FFF1F0590F491E02D09940F93A4
S1130A301F93CF93DF938230910510F482E090E00E
S1130A40E0919200F091930020E030E0A0E0B0E06B
S1130A50309719F140815181028113814817590758
S1130A60C8F08417950769F4109731F012960C9327
S1130A70129713961C9327C000939200109393002F
S1130A8022C02115310519F04217530718F49A01B1
S1130A90BD01EF01DF01F801DBCF21153105F9F0CC
S1130AA0281B390B2430310580F48A819B81611520
S1130AB0710521F0FB019383828304C0909393001A
S1130AC080939200FE01329644C0FE01E20FF31FB0
S1130AD08193919322503109398328833AC020911C
S1130AE0900030919100232B41F4209162003091C9
S1130AF06300309391002093900020916000309126
S1130B0061002115310541F42DB73EB740916400D1
S1130B1050916500241B350BE0919000F0919100F9
S1130B20E217F307A0F42E1B3F0B2817390778F0C0
S1130B30AC014E5F5F4F2417350748F04E0F5F1F1F
S1130B4050939100409390008193919302C0E0E010
S1130B50F0E0CF01DF91CF911F910F910895CF93D2
S1130B60DF93009709F481C0FC013297138212824B
S1130B70A0919200B0919300109781F4208131816B
S1130B80820F931F2091900030919100281739070C
S1130B9051F5F0939100E093900067C0ED0120E0DF
S1130BA030E0CE17DF0740F44A815B819E01411596
S1130BB05105F1F0EA01F5CFD383C283408151811D
S1130BC0840F951FC817D90759F488819981840F18
S1130BD0951F0296918380838A819B81938382836C
S1130BE02115310529F4F0939300E09392003DC060
S1130BF0E901FB83EA8349915991C40FD51FEC178E
S1130C00FD0761F480819181840F951F0296E901AB
S1130C1099838883828193819B838A83E0E0F0E0D7
S1130C2012968D919C911397009719F0FD01DC01A8
S1130C30F7CF8D919C9111979D012E5F3F4F820FAD
S1130C40931F20919000309191002817390769F47F
S1130C50309729F4109293001092920002C01382EC
S1130C601282B0939100A0939000DF91CF910895E8
S1130C70A0E0B0E0EDE3F6E0CEC0EC01009719F49B
S1130C80CB01D5DEB0C0FC01E60FF71F9C0122505A
S1130C903109E217F30708F4A4C0D9010D911C919E
S1130CA0119706171707A8F00530110508F497C027
S1130CB0C80104978617970708F491C002501109D8
S1130CC0061B170B019311936D937C93CF0147DFA0
S1130CD086C05B01A01AB10A4C01800E911EA0913E
S1130CE09200B0919300612C712CE12CF12C10979F
S1130CF009F446C08D919C911197A815B905B1F5D9
S1130D006C0142E0C40ED11CCA14DB0478F14C011E
S1130D108A189B08640142E0C40ED11C1296BC9050
S1130D2012971396AC91B5E0CB16D10440F0B28281
S1130D30A38391828082D9016D937C9309C00E5F55
S1130D401F4F800F911FF90191838083EB2DFA2FA0
S1130D50E114F10431F0D7011396FC93EE9312974A
S1130D603EC0F0939300E093920039C06816790670
S1130D7008F43C017D0112960D90BC91A02DB7CFD3
S1130D80809190009091910088169906E1F466167E
S1130D907706C8F48091600090916100009741F457
S1130DA08DB79EB74091640050916500841B950BEC
S1130DB0E817F907B0F4F0939100E0939000F9017B
S1130DC0718360830CC0CB0132DE7C01009749F053
S1130DD0A801BE010CD0CE01C2DEC70104C0CE0101
S1130DE002C080E090E0CDB7DEB7EEE030C0FB019A
S1130DF0DC0102C001900D9241505040D8F7089593
S1130E00DC0101C06D9341505040E0F708952F92EA
S1130E103F924F925F926F927F928F929F92AF9286
S1130E20BF92CF92DF92EF92FF920F931F93CF93D3
S1130E30DF93CDB7DEB7CA1BDB0B0FB6F894DEBF6A
S1130E400FBECDBF09942A88398848885F846E8490
S1130E507D848C849B84AA84B984C884DF80EE80DA
S1130E60FD800C811B81AA81B981CE0FD11D0FB6E3
S1130E70F894DEBF0FBECDBFED010895F894FFCF07
S1130E800000940020000010000000001202140270
S10D0E90160218021D0222022702B6
S9030000FC
